:020000040000FA
:100000000C945D000C9485000C9485000C94850084
:100010000C9485000C9485000C9485000C9485004C
:100020000C9485000C9485000C9485000C9485003C
:100030000C9485000C9485000C9485000C9485002C
:100040000C94F5050C9485000C94C3050C949D0547
:100050000C9485000C9485000C9485000C9485000C
:100060000C943F060C94850000000000240027003B
:100070002A0000000000250028002B0004040404CE
:100080000404040402020202020203030303030342
:10009000010204081020408001020408102001021F
:1000A00004081020000000080002010000030407FB
:1000B00000000000000000005E0711241FBECFEF0B
:1000C000D8E0DEBFCDBF22E0ACE7B1E001C01D92B9
:1000D000AD3EB207E1F711E0A0E0B1E0E8E4F2E103
:1000E00002C005900D92AC37B107D9F710E0CDE50D
:1000F000D0E004C02197FE010E941C09CC35D10735
:10010000C9F70E94A5070C9422090C9400000895D9
:100110000895AF92BF92CF92DF92EF92FF920F932A
:100120001F93CF93DF936C017B018B01040F151F8D
:10013000EB015E01AE18BF08C017D10759F06991F5
:10014000D601ED91FC910190F081E02DC601099559
:10015000892B79F7C501DF91CF911F910F91FF9006
:10016000EF90DF90CF90BF90AF900895FC01538D3A
:10017000448D252F30E0842F90E0821B930B541781
:1001800010F0CF96089501970895FC01918D828D0E
:10019000981761F0A28DAE0FBF2FB11D5D968C91A7
:1001A000928D9F5F9F73928F90E008958FEF9FEFE6
:1001B0000895FC01918D828D981731F0828DE80FA2
:1001C000F11D858D90E008958FEF9FEF0895FC015C
:1001D000918D228D892F90E0805C9F4F821B910929
:1001E0008F73992708958FE392E00E94E70021E042
:1001F000892B09F420E0822F089580E090E0892B7C
:1002000029F00E94F30081110C9400000895FC0174
:10021000A48DA80FB92FB11DA35ABF4F2C91848D67
:1002200090E001968F739927848FA689B7892C93C4
:10023000A089B1898C91837080648C93938D848D17
:10024000981306C00288F389E02D80818F7D80831A
:100250000895EF92FF920F931F93CF93DF93EC01DA
:1002600081E0888F9B8D8C8D98131AC0E889F9895D
:10027000808185FF15C09FB7F894EE89FF89608360
:10028000E889F98980818370806480839FBF81E0E1
:1002900090E0DF91CF911F910F91FF90EF90089523
:1002A000F62E0B8D10E00F5F1F4F0F731127E02EFE
:1002B0008C8D8E110CC00FB607FCFACFE889F98936
:1002C000808185FFF5CFCE010E940701F1CFEB8D34
:1002D000EC0FFD2FF11DE35AFF4FF0829FB7F8940A
:1002E0000B8FEA89FB8980818062CFCFCF93DF9328
:1002F000EC01888D8823B9F0AA89BB89E889F9893E
:100300008C9185FD03C0808186FD0DC00FB607FC72
:10031000F7CF8C9185FFF2CF808185FFEDCFCE01A5
:100320000E940701E9CFDF91CF91089590E0FC0191
:10033000EC55FF4F2491FC01E057FF4F3491FC0135
:10034000E458FF4FE491EE23C9F0222339F0233023
:1003500001F1A8F4213019F1223029F1F0E0EE0F7B
:10036000FF1FEE58FF4FA591B4918FB7F894EC9111
:10037000611126C030953E233C938FBF08952730EE
:10038000A9F02830C9F0243049F7809180008F7D92
:1003900003C0809180008F7780938000DFCF84B589
:1003A0008F7784BDDBCF84B58F7DFBCF8091B0008C
:1003B0008F778093B000D2CF8091B0008F7DF9CF3E
:1003C0003E2BDACFCF93DF9390E0FC01E057FF4F55
:1003D000249184589F4FFC0184918823D1F090E0B0
:1003E000880F991FFC01E859FF4FA591B491FC01BA
:1003F000EE58FF4FC591D49161110EC09FB7F8948C
:100400008C91E22FE0958E238C932881E223E88360
:100410009FBFDF91CF9108958FB7F894EC91E22BB5
:10042000EC938FBFF6CF3FB7F8948091E5019091A0
:10043000E601A091E701B091E80126B5A89B05C0AF
:100440002F3F19F00196A11DB11D3FBFBA2FA92F53
:10045000982F8827BC01CD01620F711D811D911D50
:1004600042E0660F771F881F991F4A95D1F70895BC
:10047000EF92FF921F93CF93DF93D82F109100013B
:1004800060E0812F0E94960161E08DE00E9496015C
:10049000C8E08FE0E82EF12C60E08DE00E9496012C
:1004A000C7010197F1F761E0D7FF60E08BE00E94A0
:1004B0009601DD0F61E08DE00E949601C701019772
:1004C000F1F7C15049F761E0812FDF91CF911F9182
:1004D000FF90EF900C94960108952091BD01260F96
:1004E0003327331F21323105ECF420911502FC0132
:1004F00090E080E0243069F082E00895A091BD0191
:100500002191AC0143565E4FA40FB52FB11D2C9322
:100510000196861798F38091BD01680F6093BD0125
:1005200080E0089581E008951092150281E08093A3
:1005300014021092EF0161E082E10E94960161E0F5
:1005400083E10E949601E9EBF0E080818E7F808359
:1005500080818D7F808388E48093B80085E48093D8
:10056000BC000895CF93DF9391E090939C01882382
:10057000B9F0C091B800D091BA008091BC008A7BDC
:100580008093BC0060E082E10E94960160E083E11C
:100590000E9496010E949402D093BA00C093B800C2
:1005A000DF91CF910895CF92DF92EF92FF920F9358
:1005B0001F93CF93DF93D0913E0281E0D13208F0B8
:1005C0009CC0C0913D020E9413026B017C0180918E
:1005D000150281116CC082E08093150281E0809346
:1005E00014028FEF8093130210921202D093110223
:1005F000ADE1B2E0E1EFF1E080E0D8138DC0109200
:10060000F0018091F001CC0FC82BC093F0018091D4
:10061000EF01813009F084C01092EF010E941302B3
:100620006B017C018091F0018093BB0080911702E7
:1006300090911802A0911902B0911A02892B8A2B6D
:100640008B2BA1F00E941302009117021091180247
:100650002091190230911A026C197D098E099F09A7
:10066000061717072807390708F442C08091BC0015
:1006700083FDD8CF85EC8093BC000E9413026B01F0
:100680007C0180911502823009F44CC080911302E4
:100690008F3F09F469C080911302803209F466C06B
:1006A00080911302803309F463C084E026C08091F6
:1006B000170290911802A0911902B0911A02892B89
:1006C0008A2B8B2B09F483CF0E941302009117020F
:1006D000109118022091190230911A026C197D09AB
:1006E0008E099F09061717072807390708F06FCFEB
:1006F000809116020E94B20285E010921C021092B4
:100700003E0210921B02DF91CF911F910F91FF903B
:10071000EF90DF90CF9008959D9191938F5F6DCF73
:1007200085EEA9CF8091170290911802A09119022D
:10073000B0911A02892B8A2B8B2B09F4A2CF0E942D
:1007400013020091170210911802209119023091A2
:100750001A026C197D098E099F09061717072807C9
:10076000390708F08ECFC4CF80E0C7CF82E0C5CF75
:1007700083E0C3CF0895E091EE018091ED01E81789
:1007800030F4F0E0E458FE4F808190E008958FEF60
:100790009FEF08959091EE018091ED012FEF3FEFD3
:1007A000981748F4E92FF0E0E458FE4F208130E03C
:1007B0009F5F9093EE01C90108958091ED019091A2
:1007C000EE01891B990B0895CF92DF92EF92FF9271
:1007D0000F931F93CF93DF937C01CB018A0120916C
:1007E0001B02222389F0EB016B01C40ED51ECC1530
:1007F000DD0569F06991D701ED91FC910190F081DF
:10080000E02DC7010995F3CF642F0E946D02C80146
:10081000DF91CF911F910F91FF90EF90DF90CF90DC
:100820000895CF93DF931F92CDB7DEB769832091F0
:100830001B022223F9F020913E02203258F021E0E1
:1008400030E0FC013383228390E080E00F90DF9161
:10085000CF91089580911C02E82FF0E0E35EFD4FF8
:10086000998190838F5F80931C0280933E0281E088
:1008700090E0ECCF61E0CE0101960E946D02F7CFCF
:100880008091E802823041F08330C1F08130A9F4D8
:100890008FE392E00C9429018091010191E0909303
:1008A0001B0280933D0210921C0210923E028CEDBE
:1008B00092E00E9411040E94D3020895862F0E94A4
:1008C0003802FBCF0F931F93CF93DF93082F162F80
:1008D0008091E802823019F1833009F448C08130F8
:1008E000C9F46EEF8FE392E00E942901C3ECD0E0DF
:1008F000CE010197F1F7602F8FE392E00E9429016A
:10090000CE010197F1F7612F8FE392E00E94290158
:100910002197F1F7DF91CF911F910F910895809169
:10092000010191E090931B0280933D0210921C0202
:1009300010923E026EEF8CED92E00E941104CBE823
:10094000D1E0CE010197F1F7602F8CED92E00E948B
:100950001104CE010197F1F7612F8CED92E00E9416
:100960001104CE010197F1F70E94D302D1CF8EEF8F
:100970000E943802CFE0D0E0CE010197F1F7802F3E
:100980000E943802CE010197F1F7812F0E943802B0
:10099000BFCF1F93CF93DF93182F8091E80282304F
:1009A000D1F0833009F437C0813089F46EEF8FE3E2
:1009B00092E00E942901C3ECD0E0CE010197F1F74B
:1009C000612F8FE392E00E9429012197F1F7DF91D7
:1009D000CF911F9108958091010191E090931B02A6
:1009E00080933D0210921C0210923E026EEF8CED3D
:1009F00092E00E941104CBE8D1E0CE010197F1F71B
:100A0000612F8CED92E00E941104CE010197F1F765
:100A10000E94D302DACF8EEF0E943802CFE0D0E0FE
:100A2000CE010197F1F7812F0E943802CECF90E0DE
:100A300080E008950F931F93CF938C01FC010190E8
:100A40000020E9F79F0121503109281B390B28327A
:100A5000310510F028E230E0C22F2091E802223068
:100A600071F0233031F1213061F5C15050F1F801BE
:100A700061918F018FE392E00E942901F6CF2091CE
:100A8000010131E030931B0220933D0210921C02C1
:100A900010923E02C15040F0F80161918F018CED3F
:100AA00092E00E941104F6CFCF911F910F910C9408
:100AB000D302C15030F0F80181918F010E943802B9
:100AC000F8CFCF911F910F91089585ED8093BC00D1
:100AD0008091170290911802A0911902B0911A0208
:100AE0000796A11DB11D23E0B695A795979587950B
:100AF0002A95D1F72091BC0024FD03C01092150265
:100B00000895409117025091180260911902709156
:100B10001A02452B462B472B69F30097A105B10517
:100B200041F025E32A95F1F700000197A109B109E9
:100B3000E1CF809116020C94B2021F920F920FB671
:100B40000F9211242F933F934F935F936F937F9353
:100B50008F939F93AF93BF93EF93FF938FE392E0B5
:100B60000E940701FF91EF91BF91AF919F918F91EB
:100B70007F916F915F914F913F912F910F900FBE99
:100B80000F901F9018951F920F920FB60F9211247D
:100B90002F938F939F93EF93FF93E0914F02F091E8
:100BA00050028081E0915502F091560282FD1BC0F7
:100BB0009081809158028F5F8F7320915902821724
:100BC00041F0E0915802F0E0E15CFD4F958F809399
:100BD0005802FF91EF919F918F912F910F900FBE2F
:100BE0000F901F9018958081F4CF1F920F920FB62F
:100BF0000F9211242F933F938F939F93AF93BF93A3
:100C00008091E1019091E201A091E301B091E401B2
:100C10003091E00123E0230F2D3758F50196A11DF7
:100C2000B11D2093E0018093E1019093E201A09334
:100C3000E301B093E4018091E5019091E601A09178
:100C4000E701B091E8010196A11DB11D8093E50176
:100C50009093E601A093E701B093E801BF91AF91B3
:100C60009F918F913F912F910F900FBE0F901F90EA
:100C7000189526E8230F0296A11DB11DD2CF1F9211
:100C80000F920FB60F9211242F933F934F935F93C0
:100C90006F937F938F939F93AF93BF93EF93FF9344
:100CA0008091B900887F803609F44AC0F0F5883217
:100CB00009F4A7C018F5803109F49BC0B8F4882363
:100CC00009F4F9C0883009F494C0FF91EF91BF9105
:100CD000AF919F918F917F916F915F914F913F91D4
:100CE0002F910F900FBE0F901F901895883109F427
:100CF00088C0803251F78093130214C0803409F405
:100D00009DC040F48033B9F38833F9F68093130221
:100D100085ECB0C0803509F485C0883509F496C0EB
:100D2000883499F60E946505D0CF883909F48CC0C3
:100D300038F5883729F050F4883611F0803729F6D5
:100D400083E0809315021092DF0157C0883809F4C0
:100D50007BC0803919F0803809F0B7CF8091DF016E
:100D6000803208F071C0E091DF0181E08E0F809346
:100D7000DF018091BB00F0E0E154FE4F80833DC075
:100D8000803B39F0E0F4803A09F479C0883A09F000
:100D90009CCF84E0809315021092BE011092BD0199
:100DA000E091EB01F091EC0109958091BD01811179
:100DB0000FC081E08093BD0110929D0109C0803C6D
:100DC00009F4A6CF883C09F4A3CF883B09F07DCF76
:100DD000E091BE0181E08E0F8093BE01F0E0E3560A
:100DE000FE4F80818093BB009091BE018091BD0138
:100DF00029C08091F0018093BB0085EC8093BC00FA
:100E000064CF9091120280911102981758F5E091E9
:100E1000120281E08E0F80931202F0E0EF50FE4F3D
:100E20008081E9CFE091120281E08E0F809312025F
:100E30008091BB00F0E0EF50FE4F80839091120252
:100E4000809111029817C8F285E8D8CFE09112027C
:100E500081E08E0F809312028091BB00F0E0EF5092
:100E6000FE4F80838091140281115CCF81E08093DA
:100E7000EF0184EA8093BC001092150226CF85EC26
:100E80008093BC00109215028091DF01803230F413
:100E9000E091DF01F0E0E154FE4F10826091DF014C
:100EA00070E0E091E901F091EA018FEB91E00995A2
:100EB0001092DF010ACF1092130234CFEFE3F2E079
:100EC0001382128288EE93E0A0E0B0E084839583E1
:100ED000A683B78328E031E03183208325EC30E01E
:100EE0003587248724EC30E03787268720EC30E0F4
:100EF000318B208B21EC30E0338B228B22EC30E0E5
:100F0000358B248B26EC30E0378B268B118E128E9E
:100F1000138E148EECEDF2E013821282848395839B
:100F2000A683B7838AE191E091838083E9EEF2E0C2
:100F3000138212828CE291E09183808382E080931D
:100F4000E80288E2809301010895789484B5826074
:100F500084BD84B5816084BD85B5826085BD85B55D
:100F6000816085BD80916E00816080936E001092DB
:100F70008100809181008260809381008091810056
:100F800081608093810080918000816080938000E7
:100F90008091B10084608093B1008091B000816045
:100FA0008093B00080917A00846080937A00809171
:100FB0007A00826080937A0080917A0081608093C9
:100FC0007A0080917A00806880937A001092C10044
:100FD0000E9413024B015C0124EFC22EDD24D39446
:100FE000E12CF12C0E941302681979098A099B09E6
:100FF000683E734081059105A8F321E0C21AD1082B
:10100000E108F10888EE880E83E0981EA11CB11C4F
:10101000C114D104E104F10429F78091E80282307F
:1010200009F4BAC0833009F4CEC0813009F069C038
:10103000C0900201D0900301F12CE12C60E079E036
:101040008DE390E0A70196010E94FA082150310932
:10105000410951095695479537952795E0914F02DB
:10106000F091500282E08083C11481EED806E10441
:10107000F10421F0211580E13807A8F0E0914F023A
:10108000F0915002108260E874E88EE190E0A701D0
:1010900096010E94FA0821503109410951095695DB
:1010A000479537952795E0914B02F0914C0230839C
:1010B000E0914D02F0914E02208310925702E09190
:1010C0005302F091540286E08083E0915102F09146
:1010D0005202808180618083E0915102F09152023E
:1010E000808188608083E0915102F091520280817A
:1010F00080688083E0915102F091520280818F7D5F
:10110000808381E40E94C90468E282E50E9462044F
:1011100081E50E94C904CBE1D3E0CE010197F1F74C
:101120008CE40E94C90488E40E94C90486E40E94F9
:10113000C90468E083E50E94620486E40E94C90451
:1011400081E50E94C9042197F1F784E391E00E94B0
:101150001A0560E485E40E94620482E491E00E9442
:101160001A0564E185E40E94620484E591E00E942E
:101170001A0564E585E40E94620487E691E00E9416
:101180001A05C0E0D0E02097F1F30E94F300882315
:10119000D1F30E940000F7CF1092EE011092ED0102
:1011A00010921C0210923E020E94940287E890E086
:1011B0009093EC018093EB0188E890E09093EA0132
:1011C0008093E9019ECFC091000161E08C2F0E94C5
:1011D000E20161E08DE00E94E20161E08BE00E94AB
:1011E000E20160E08CE00E94E20161E08C2F0E944D
:1011F000960187CFA1E21A2EAA1BBB1BFD010DC0D1
:10120000AA1FBB1FEE1FFF1FA217B307E407F507B6
:1012100020F0A21BB30BE40BF50B661F771F881F92
:10122000991F1A9469F760957095809590959B0128
:10123000AC01BD01CF010895EE0FFF1F0590F491A1
:10124000E02D0994F894FFCF0A28802500000000C3
:1012500029018900B6007601E700C500D900000029
:1012600000001104E4031705BA03DD03CA03BB033E
:10127000000000004004890017056C0248454C4CF2
:101280004F2C20574F524C4421004C6971756964B2
:101290004372797374616C204E4B43004279204451
:1012A0006F6D696E6963204C756369616E6F00478D
:1012B00069744875622E636F6D2F446F6D694C754C
:0412C000636900005E
:107800000C94343C0C94513C0C94513C0C94513CE1
:107810000C94513C0C94513C0C94513C0C94513CB4
:107820000C94513C0C94513C0C94513C0C94513CA4
:107830000C94513C0C94513C0C94513C0C94513C94
:107840000C94513C0C94513C0C94513C0C94513C84
:107850000C94513C0C94513C0C94513C0C94513C74
:107860000C94513C0C94513C11241FBECFEFD8E036
:10787000DEBFCDBF11E0A0E0B1E0ECE9FFE702C060
:1078800005900D92A230B107D9F712E0A2E0B1E065
:1078900001C01D92AD30B107E1F70E942D3D0C945F
:1078A000CC3F0C94003C982F959595959595959582
:1078B000905D8F708A307CF0282F295A8091C0000B
:1078C00085FFFCCF9093C6008091C00085FFFCCF60
:1078D0002093C6000895282F205DF0CF982F809127
:1078E000C00085FFFCCF9093C6000895EF92FF92F1
:1078F0000F931F93EE24FF2487018091C00087FD22
:1079000017C00894E11CF11C011D111D81E4E8164B
:1079100082E4F8068FE0080780E0180770F3E09132
:107920000401F091050109958091C00087FFE9CF1E
:107930008091C6001F910F91FF90EF9008950E94D3
:10794000763C982F8091C00085FFFCCF9093C600B5
:1079500091362CF490330CF09053892F089597555D
:10796000892F08951F930E949F3C182F0E949F3CCF
:107970001295107F810F1F9108951F93182F882350
:1079800021F00E94763C1150E1F71F9108951F935A
:10799000182F0E94763C803249F0809103018F5F5E
:1079A000809303018530C1F01F9108958091C0003C
:1079B00085FFFCCF84E18093C6008091C00085FFE5
:1079C000FCCF1093C6008091C00085FFFCCF80E102
:1079D0008093C6001F910895E0910401F091050184
:1079E00009951F9108950E94763C803241F0809164
:1079F00003018F5F80930301853081F008958091AA
:107A0000C00085FFFCCF84E18093C6008091C00058
:107A100085FFFCCF80E18093C6000895E0910401CA
:107A2000F09105010995089540E951E08823A1F0FE
:107A30002D9A28EE33E0FA013197F1F721503040CA
:107A4000D1F72D9828EE33E0FA013197F1F7215064
:107A50003040D1F7815061F708953F924F925F9285
:107A60006F927F928F929F92AF92BF92CF92DF924E
:107A7000EF92FF920F931F93CF93DF93000080E16B
:107A80008093C4001092C50088E18093C10086E015
:107A90008093C2005098589A259A81E00E94143D24
:107AA00024E1F22E9EE1E92E85E9D82E0FE0C02ECA
:107AB00010E1B12EAA24A394B1E49B2EA6E58A2E50
:107AC000F2E57F2EE0E26E2E79E4572E63E5462E36
:107AD00050E5352E0E94763C8033B1F18133B9F107
:107AE000803409F46FC0813409F476C0823409F41B
:107AF00085C0853409F488C0803531F1823521F1A3
:107B0000813511F1853509F485C0863509F48DC0BC
:107B1000843609F496C0843709F403C1853709F423
:107B200072C1863709F466C0809103018F5F80932C
:107B30000301853079F6E0910401F0910501099582
:107B40000E94763C803351F60E94F33CC3CF0E94E2
:107B5000763C803249F78091C00085FFFCCFF092DF
:107B6000C6008091C00085FFFCCF9092C600809136
:107B7000C00085FFFCCF8092C6008091C00085FFC9
:107B8000FCCF7092C6008091C00085FFFCCF609250
:107B9000C6008091C00085FFFCCF5092C600809146
:107BA000C00085FFFCCF4092C6008091C00085FFD9
:107BB000FCCF3092C6008091C00085FFFCCFB09210
:107BC000C60088CF0E94763C863808F4BDCF0E945C
:107BD000763C0E94F33C7ECF0E94763C803809F4CC
:107BE0009CC0813809F40BC1823809F43CC1883942
:107BF00009F48FC080E00E94C73C6CCF84E10E94F2
:107C0000BD3C0E94F33C66CF85E00E94BD3C0E94D3
:107C1000F33C60CF0E94763C809306010E94763C44
:107C2000809307010E94F33C55CF0E94763C80333D
:107C300009F41DC183E00E94BD3C80E00E94C73C66
:107C400049CF0E94763C809309020E94763C809343
:107C5000080280910C028E7F80930C020E94763C79
:107C6000853409F415C18091080290910902892B8D
:107C700089F000E010E00E94763CF801E85FFE4FDA
:107C800080830F5F1F4F80910802909109020817AF
:107C9000190788F30E94763C803209F045CF809125
:107CA0000C0280FF01C16091060170910701660F0F
:107CB000771F7093070160930601A0910802B091AD
:107CC00009021097C9F0E8E0F1E09B01AD014E0F09
:107CD0005F1FF999FECF32BD21BD819180BDFA9A17
:107CE000F99A2F5F3F4FE417F50799F76A0F7B1F4B
:107CF00070930701609306018091C00085FFFCCF5F
:107D0000F092C6008091C00085FFFCCFB092C60003
:107D1000E1CE83E00E94C73CDDCE82E00E94C73CFA
:107D2000D9CE0E94763C809309020E94763C8093D3
:107D300008028091060190910701880F991F909386
:107D40000701809306010E94763C853409F4A6C0A1
:107D500080910C028E7F80930C020E94763C8032D0
:107D600009F0B8CE8091C00085FFFCCFF092C6002C
:107D7000609108027091090261157105B9F140E046
:107D800050E080910C02A82FA170B82FB27011C0E2
:107D9000BB2309F45CC0E0910601F0910701319624
:107DA000F0930701E09306014F5F5F4F46175707B7
:107DB000E8F4AA2369F3F999FECF209106013091E6
:107DC000070132BD21BDF89A90B58091C00085FFB2
:107DD000FCCF9093C6002F5F3F4F30930701209355
:107DE00006014F5F5F4F4617570718F38091C00099
:107DF00085FDE5CE8091C00085FFF8CFE0CE81E023
:107E00000E94C73C67CE0E94763C803209F08CCE3F
:107E10008091C00085FFFCCFF092C6008091C00029
:107E200085FFFCCFE092C6008091C00085FFFCCFAB
:107E3000D092C6008091C00085FFFCCFC092C600E2
:107E40008091C00085FFFCCFB092C60043CEE09188
:107E50000601F091070194918091C00085FFFCCF4D
:107E60009093C6009CCF80E10E94C73C33CE0E9415
:107E7000763C0E94763C182F0E94763C112309F430
:107E800083C0113009F484C08FE00E94C73C22CE29
:107E900080910C02816080930C02E5CE80910C02EF
:107EA000816080930C0259CF809107018823880F4D
:107EB000880B8A2180930B02809106019091070123
:107EC000880F991F90930701809306018091080203
:107ED00080FF09C080910802909109020196909359
:107EE000090280930802F894F999FECF1127E091D6
:107EF0000601F0910701C8E0D1E08091080290915D
:107F00000902103091F40091570001700130D9F34B
:107F100003E000935700E89500915700017001308D
:107F2000D9F301E100935700E89509901990009169
:107F3000570001700130D9F301E000935700E89534
:107F40001395103498F011270091570001700130FB
:107F5000D9F305E000935700E895009157000170B0
:107F60000130D9F301E100935700E895329602976A
:107F700009F0C7CF103011F00296E5CF112480919F
:107F8000C00085FFB9CEBCCE8EE10E94C73CA2CD19
:0E7F900085E90E94C73C9ECDF894FFCF80008B
:00000001FF
