:100000000C945D000C9485000C9485000C94850084
:100010000C9485000C9485000C9485000C9485004C
:100020000C9485000C9485000C9485000C9485003C
:100030000C9485000C9485000C9485000C9485002C
:100040000C9409060C9485000C94D7050C94B1050A
:100050000C9485000C9485000C9485000C9485000C
:100060000C9453060C948500000000002400270027
:100070002A0000000000250028002B0004040404CE
:100080000404040402020202020203030303030342
:10009000010204081020408001020408102001021F
:1000A00004081020000000080002010000030407FB
:1000B0000000000000000000720711241FBECFEFF7
:1000C000D8E0DEBFCDBF22E0AEE7B1E001C01D92B7
:1000D000A03FB207E1F711E0A0E0B1E0ECE7F2E108
:1000E00002C005900D92AE37B107D9F710E0CDE50B
:1000F000D0E004C02197FE010E943609CC35D1071B
:10010000C9F70E94BF070C943C090C9400000895A5
:100110000895AF92BF92CF92DF92EF92FF920F932A
:100120001F93CF93DF936C017B018B01040F151F8D
:10013000EB015E01AE18BF08C017D10759F06991F5
:10014000D601ED91FC910190F081E02DC601099559
:10015000892B79F7C501DF91CF911F910F91FF9006
:10016000EF90DF90CF90BF90AF900895FC01538D3A
:10017000448D252F30E0842F90E0821B930B541781
:1001800010F0CF96089501970895FC01918D828D0E
:10019000981761F0A28DAE0FBF2FB11D5D968C91A7
:1001A000928D9F5F9F73928F90E008958FEF9FEFE6
:1001B0000895FC01918D828D981731F0828DE80FA2
:1001C000F11D858D90E008958FEF9FEF0895FC015C
:1001D000918D228D892F90E0805C9F4F821B910929
:1001E0008F739927089581E492E00E94E70021E04F
:1001F000892B09F420E0822F089580E090E0892B7C
:1002000029F00E94F30081110C9400000895FC0174
:10021000A48DA80FB92FB11DA35ABF4F2C91848D67
:1002200090E001968F739927848FA689B7892C93C4
:10023000A089B1898C91837080648C93938D848D17
:10024000981306C00288F389E02D80818F7D80831A
:100250000895EF92FF920F931F93CF93DF93EC01DA
:1002600081E0888F9B8D8C8D98131AC0E889F9895D
:10027000808185FF15C09FB7F894EE89FF89608360
:10028000E889F98980818370806480839FBF81E0E1
:1002900090E0DF91CF911F910F91FF90EF90089523
:1002A000F62E0B8D10E00F5F1F4F0F731127E02EFE
:1002B0008C8D8E110CC00FB607FCFACFE889F98936
:1002C000808185FFF5CFCE010E940701F1CFEB8D34
:1002D000EC0FFD2FF11DE35AFF4FF0829FB7F8940A
:1002E0000B8FEA89FB8980818062CFCFCF93DF9328
:1002F000EC01888D8823B9F0AA89BB89E889F9893E
:100300008C9185FD03C0808186FD0DC00FB607FC72
:10031000F7CF8C9185FFF2CF808185FFEDCFCE01A5
:100320000E940701E9CFDF91CF91089590E0FC0191
:10033000EC55FF4F2491FC01E057FF4F3491FC0135
:10034000E458FF4FE491EE23C9F0222339F0233023
:1003500001F1A8F4213019F1223029F1F0E0EE0F7B
:10036000FF1FEE58FF4FA591B4918FB7F894EC9111
:10037000611126C030953E233C938FBF08952730EE
:10038000A9F02830C9F0243049F7809180008F7D92
:1003900003C0809180008F7780938000DFCF84B589
:1003A0008F7784BDDBCF84B58F7DFBCF8091B0008C
:1003B0008F778093B000D2CF8091B0008F7DF9CF3E
:1003C0003E2BDACFCF93DF9390E0FC01E057FF4F55
:1003D000249184589F4FFC0184918823D1F090E0B0
:1003E000880F991FFC01E859FF4FA591B491FC01BA
:1003F000EE58FF4FC591D49161110EC09FB7F8948C
:100400008C91E22FE0958E238C932881E223E88360
:100410009FBFDF91CF9108958FB7F894EC91E22BB5
:10042000EC938FBFF6CF3FB7F8948091E70190919E
:10043000E801A091E901B091EA0126B5A89B05C0A9
:100440002F3F19F00196A11DB11D3FBFBA2FA92F53
:10045000982F8827BC01CD01620F711D811D911D50
:1004600042E0660F771F881F991F4A95D1F70895BC
:10047000EF92FF920F931F93CF93DF93182F00916A
:10048000000160E0802F0E94960161E08DE00E94F3
:100490009601C8E0D0E08FE0E82EF12C60E08DE01E
:1004A0000E949601C7010197F1F761E017FF60E034
:1004B0008BE00E949601110F61E08DE00E94960191
:1004C000C7010197F1F7219749F761E0802FDF918C
:1004D000CF911F910F91FF90EF900C94960108958A
:1004E0002091BF01260F3327331F21323105ECF451
:1004F00020911702FC0190E080E0243069F082E056
:100500000895A091BF012191AC0141565E4FA40F07
:10051000B52FB11D2C930196861798F38091BF01DA
:10052000680F6093BF0180E0089581E00895109204
:10053000170281E0809316021092F10161E082E1DE
:100540000E94960161E083E10E949601E9EBF0E0F0
:1005500080818E7F808380818D7F808388E48093FB
:10056000B80085E48093BC000895CF93DF9391E0B9
:1005700090939E018823B9F0C091B800D091BA0041
:100580008091BC008A7B8093BC0060E082E10E9485
:10059000960160E083E10E9496010E949702D09349
:1005A000BA00C093B800DF91CF910895CF92DF9247
:1005B000EF92FF920F931F93CF93DF93D09140025E
:1005C00081E0D13208F09CC0C0913F020E9413022A
:1005D0006B017C018091170281116CC082E08093D5
:1005E000170281E0809316028FEF8093150210921C
:1005F0001402D0931302AFE1B2E0E3EFF1E080E048
:10060000D8138DC01092F2018091F201CC0FC82B4B
:10061000C093F2018091F101813009F084C0109201
:10062000F1010E9413026B017C018091F201809321
:10063000BB008091190290911A02A0911B02B09107
:100640001C02892B8A2B8B2BA1F00E941302009194
:10065000190210911A0220911B0230911C026C1990
:100660007D098E099F09061717072807390708F41F
:1006700042C08091BC0083FDD8CF85EC8093BC0044
:100680000E9413026B017C0180911702823009F4F1
:100690004CC0809115028F3F09F469C0809115020A
:1006A000803209F466C080911502803309F463C07A
:1006B00084E026C08091190290911A02A0911B0239
:1006C000B0911C02892B8A2B8B2B09F483CF0E94BB
:1006D00013020091190210911A0220911B0230910D
:1006E0001C026C197D098E099F0906171707280738
:1006F000390708F06FCF809118020E94B50285E09B
:1007000010921E021092400210921D02DF91CF91B2
:100710001F910F91FF90EF90DF90CF9008959D91E2
:1007200091938F5F6DCF85EEA9CF80911902909143
:100730001A02A0911B02B0911C02892B8A2B8B2BD1
:1007400009F4A2CF0E9413020091190210911A021B
:1007500020911B0230911C026C197D098E099F09A2
:10076000061717072807390708F08ECFC4CF80E097
:10077000C7CF82E0C5CF83E0C3CF0895E091F001F9
:100780008091EF01E81730F4F0E0E258FE4F8081ED
:1007900090E008958FEF9FEF08959091F001809180
:1007A000EF012FEF3FEF981748F4E92FF0E0E25800
:1007B000FE4F208130E09F5F9093F001C9010895C2
:1007C0008091EF019091F001891B990B0895CF92D0
:1007D000DF92EF92FF920F931F93CF93DF937C01F1
:1007E000CB018A0120911D02222389F0EB016B01CC
:1007F000C40ED51ECC15DD0569F06991D701ED91C8
:10080000FC910190F081E02DC7010995F3CF642F91
:100810000E947002C801DF91CF911F910F91FF904C
:10082000EF90DF90CF900895CF93DF931F92CDB7D5
:10083000DEB7698320911D022223F9F02091400246
:10084000203258F021E030E0FC013383228390E035
:1008500080E00F90DF91CF91089580911E02E82FE4
:10086000F0E0E15EFD4F998190838F5F80931E02DF
:100870008093400281E090E0ECCF61E0CE010196F0
:100880000E947002F7CF8091EA029091EB028230D1
:10089000910549F083309105C1F00197A9F481E4F5
:1008A00092E00C9429018091020191E090931D0245
:1008B00080933F0210921E02109240028EED92E051
:1008C0000E9414040E94D6020895862F0E943802C6
:1008D000FBCF0F931F93CF93DF93082F162F809199
:1008E000EA029091EB028230910521F1833091056B
:1008F00009F448C00197C9F46EEF81E492E00E94C8
:100900002901C3ECD0E0CE010197F1F7602F81E41B
:1009100092E00E942901CE010197F1F7612F81E455
:1009200092E00E9429012197F1F7DF91CF911F9169
:100930000F9108958091020191E090931D028093A0
:100940003F0210921E02109240026EEF8EED92E076
:100950000E941404CBE1D3E0CE010197F1F7602FA0
:100960008EED92E00E941404CE010197F1F7612F01
:100970008EED92E00E941404CE010197F1F70E94DF
:10098000D602D1CF8EEF0E943802CFE0D0E0CE0168
:100990000197F1F7802F0E943802CE010197F1F7FD
:1009A000812F0E943802BFCF1F93CF93DF93182F60
:1009B0008091EA029091EB0282309105D9F0833068
:1009C000910509F437C0019789F46EEF81E492E054
:1009D0000E942901C3ECD0E0CE010197F1F7612F0D
:1009E00081E492E00E9429012197F1F7DF91CF91F4
:1009F0001F9108958091020191E090931D028093D0
:100A00003F0210921E02109240026EEF8EED92E0B5
:100A10000E941404CBE1D3E0CE010197F1F7612FDE
:100A20008EED92E00E941404CE010197F1F70E942E
:100A3000D602DACF8EEF0E943802CFE0D0E0CE01AE
:100A40000197F1F7812F0E943802CECF90E080E02D
:100A500008950F931F93CF938C01FC010190002008
:100A6000E9F79F0121503109281B390B2832310544
:100A700010F028E230E0C22F2091EA023091EB0220
:100A80002230310581F02330310539F12130310533
:100A900061F5C15050F1F80161918F0181E492E05C
:100AA0000E942901F6CF2091020131E030931D020E
:100AB00020933F0210921E0210924002C15040F05B
:100AC000F80161918F018EED92E00E941404F6CF3F
:100AD000CF911F910F910C94D602C15030F0F801C4
:100AE00081918F010E943802F8CFCF911F910F9111
:100AF000089585ED8093BC008091190290911A02AF
:100B0000A0911B02B0911C020796A11DB11D23E00C
:100B1000B695A795979587952A95D1F72091BC0012
:100B200024FD03C0109217020895409119025091BC
:100B30001A0260911B0270911C02452B462B472B19
:100B400069F30097A105B10541F025E32A95F1F776
:100B500000000197A109B109E1CF809118020C941E
:100B6000B5021F920F920FB60F9211242F933F934D
:100B70004F935F936F937F938F939F93AF93BF93A5
:100B8000EF93FF9381E492E00E940701FF91EF91C0
:100B9000BF91AF919F918F917F916F915F914F9195
:100BA0003F912F910F900FBE0F901F9018951F929D
:100BB0000F920FB60F9211242F938F939F93EF9361
:100BC000FF93E0915102F09152028081E09157022F
:100BD000F091580282FD1BC0908180915A028F5F74
:100BE0008F7320915B02821741F0E0915A02F0E08E
:100BF000EF5BFD4F958F80935A02FF91EF919F918C
:100C00008F912F910F900FBE0F901F90189580819C
:100C1000F4CF1F920F920FB60F9211242F933F9390
:100C20008F939F93AF93BF938091E3019091E401E1
:100C3000A091E501B091E6013091E20123E0230F9C
:100C40002D3758F50196A11DB11D2093E201809327
:100C5000E3019093E401A093E501B093E601809154
:100C6000E7019091E801A091E901B091EA010196B4
:100C7000A11DB11D8093E7019093E801A093E901C4
:100C8000B093EA01BF91AF919F918F913F912F91C6
:100C90000F900FBE0F901F90189526E8230F029615
:100CA000A11DB11DD2CF1F920F920FB60F9211242A
:100CB0002F933F934F935F936F937F938F939F9364
:100CC000AF93BF93EF93FF938091B900887F8036F5
:100CD00009F44AC0F0F5883209F4A7C018F580314C
:100CE00009F49BC0B8F4882309F4F9C0883009F4EA
:100CF00094C0FF91EF91BF91AF919F918F917F91A0
:100D00006F915F914F913F912F910F900FBE0F9078
:100D10001F901895883109F488C0803251F780936C
:100D2000150214C0803409F49DC040F48033B9F337
:100D30008833F9F68093150285ECB0C0803509F44C
:100D400085C0883509F496C0883499F60E947905E3
:100D5000D0CF883909F48CC038F5883729F050F4A1
:100D6000883611F0803729F683E0809317021092BD
:100D7000E10157C0883809F47BC0803919F0803808
:100D800009F0B7CF8091E101803208F071C0E091A5
:100D9000E10181E08E0F8093E1018091BB00F0E0E2
:100DA000EF53FE4F80833DC0803B39F0E0F4803A42
:100DB00009F479C0883A09F09CCF84E08093170247
:100DC0001092C0011092BF01E091ED01F091EE018F
:100DD00009958091BF0181110FC081E08093BF010F
:100DE00010929F0109C0803C09F4A6CF883C09F409
:100DF000A3CF883B09F07DCFE091C00181E08E0F49
:100E00008093C001F0E0E156FE4F80818093BB00EB
:100E10009091C0018091BF0129C08091F20180931F
:100E2000BB0085EC8093BC0064CF9091140280914C
:100E30001302981758F5E091140281E08E0F809309
:100E40001402F0E0ED50FE4F8081E9CFE0911402F2
:100E500081E08E0F809314028091BB00F0E0ED5092
:100E6000FE4F808390911402809113029817C8F26C
:100E700085E8D8CFE091140281E08E0F80931402B0
:100E80008091BB00F0E0ED50FE4F80838091160210
:100E900081115CCF81E08093F10184EA8093BC00F2
:100EA0001092170226CF85EC8093BC001092170297
:100EB0008091E101803230F4E091E101F0E0EF5304
:100EC000FE4F10826091E10170E0E091EB01F09142
:100ED000EC0181EC91E009951092E1010ACF1092AA
:100EE000150234CFE1E4F2E01382128288EE93E03F
:100EF000A0E0B0E084839583A683B7832AE031E045
:100F00003183208325EC30E03587248724EC30E0E2
:100F10003787268720EC30E0318B208B21EC30E0C6
:100F2000338B228B22EC30E0358B248B26EC30E0A7
:100F3000378B268B118E128E138E148EEEEDF2E00F
:100F40001382128284839583A683B7838CE191E018
:100F500091838083ECEEF2E0138212828EE291E0C4
:100F60009183808382E090E09093EB028093EA0289
:100F700088E290E0909303018093020108957894B1
:100F800084B5826084BD84B5816084BD85B582608E
:100F900085BD85B5816085BD80916E00816080933F
:100FA0006E001092810080918100826080938100A8
:100FB00080918100816080938100809180008160B8
:100FC000809380008091B10084608093B100809113
:100FD000B00081608093B00080917A00846080933B
:100FE0007A0080917A00826080937A0080917A0002
:100FF000816080937A0080917A00806880937A0083
:101000001092C1000E9413024B015C0124EFC22E1A
:10101000DD24D394E12CF12C0E9413026819790984
:101020008A099B09683E734081059105A8F321E078
:10103000C21AD108E108F10888EE880E83E0981EF4
:10104000A11CB11CC114D104E104F10429F7809161
:10105000EA029091EB028230910509F4B7C0833027
:10106000910509F4CAC0019709F065C0C090040158
:10107000D09005010D2C000CEE08FF0860E079E02F
:101080008DE390E0A70196010E94140921503109D7
:10109000410951095695479537952795E091510299
:1010A000F091520282E08083211580E13807A8F098
:1010B000E0915102F0915202108260E874E88EE1F2
:1010C00090E0A70196010E941409215031094109BD
:1010D00051095695479537952795E0914D02F09126
:1010E0004E023083E0914F02F09150022083109223
:1010F0005902E0915502F091560286E08083E0911A
:101100005302F0915402808180618083E091530208
:10111000F0915402808188608083E0915302F091C5
:101120005402808180688083E0915302F0915402E0
:1011300080818F7D808381E40E94D40468E282E50F
:101140000E94690481E50E94D404CBE1D3E0CE0182
:101150000197F1F78CE40E94D40488E40E94D4043F
:1011600086E40E94D40468E083E50E94690486E472
:101170000E94D40481E50E94D4042197F1F786E30C
:1011800091E00E94290560E485E40E94690484E4FA
:1011900091E00E94290564E185E40E94690486E5E6
:1011A00091E00E94290564E585E40E94690489E6CE
:1011B00091E00E942905C0E0D0E02097F1F30E9461
:1011C000F3008823D1F30E940000F7CF1092F001C2
:1011D0001092EF0110921E02109240020E9497029C
:1011E00087E890E09093EE018093ED0188E890E02D
:1011F0009093EC018093EB019ECFC091000161E0E0
:101200008C2F0E94E20161E08DE00E94E20161E02A
:101210008BE00E94E20160E08CE00E94E20161E06C
:101220008C2F0E94960187CFA1E21A2EAA1BBB1B0E
:10123000FD010DC0AA1FBB1FEE1FFF1FA217B307A2
:10124000E407F50720F0A21BB30BE40BF50B661FB8
:10125000771F881F991F1A9469F76095709580957C
:1012600090959B01AC01BD01CF010895EE0FFF1FCA
:0C1270000590F491E02D0994F894FFCF54
:10127C000A00280080250000000029018900B60022
:10128C007601E700C500D900000000001404E70354
:10129C002605BD03E003CD03BE030000000043049C
:1012AC00890026056F0248454C4C4F2C20574F5255
:1012BC004C4421004C697175696443727973746193
:1012CC006C204E4B4300427920446F6D696E69630C
:1012DC00204C756369616E6F004769744875622EA6
:0E12EC00636F6D2F446F6D694C756369000070
:00000001FF
