:100000000C945E000C9486000C9486000C94860080
:100010000C9486000C9486000C9486000C94860048
:100020000C9486000C9486000C9486000C94860038
:100030000C9486000C9486000C9486000C94860028
:100040000C9411070C9486000C94DF060C94B906EE
:100050000C9486000C9486000C9486000C94860008
:100060000C945B070C94860000000000240027001D
:100070002A0000000000250028002B0004040404CE
:100080000404040402020202020203030303030342
:10009000010204081020408001020408102001021F
:1000A00004081020000000080002010000030407FB
:1000B0000000000000000000C3080F0C11241FBE48
:1000C000CFEFD8E0DEBFCDBF23E0AEECB1E001C0A2
:1000D0001D92AF34B207E1F711E0A0E0B1E0EAEE23
:1000E000FCE102C005900D92AE3CB107D9F710E0DB
:1000F000CDE5D0E004C02197FE010E94700CCC3504
:10010000D107C9F70E9418090C94680E0C940000DE
:1001100008950895FC01248135816217730748F41E
:1001200080819181009729F0860F971FFC018081C3
:10013000089580E00895AF92BF92CF92DF92EF9240
:10014000FF920F931F93CF93DF936C017B018B0181
:10015000040F151FEB015E01AE18BF08C017D107D1
:1001600059F06991D601ED91FC910190F081E02D5B
:10017000C6010995892B79F7C501DF91CF911F91B0
:100180000F91FF90EF90DF90CF90BF90AF900895C8
:10019000FC01538D448D252F30E0842F90E0821B8D
:1001A000930B541710F0CF96089501970895FC0112
:1001B000918D828D981761F0A28DAE0FBF2FB11D6A
:1001C0005D968C91928D9F5F9F73928F90E00895C2
:1001D0008FEF9FEF0895FC01918D828D981731F07C
:1001E000828DE80FF11D858D90E008958FEF9FEFD0
:1001F0000895FC01918D228D892F90E0805C9F4FA6
:10020000821B91098F739927089581E992E00E94DA
:10021000F90021E0892B09F420E0822F089580E085
:1002200090E0892B29F00E94050181110C940000B7
:100230000895FC01A48DA80FB92FB11DA35ABF4F7B
:100240002C91848D90E001968F739927848FA689D5
:10025000B7892C93A089B1898C91837080648C9329
:10026000938D848D981306C00288F389E02D8081D8
:100270008F7D80830895EF92FF920F931F93CF930A
:10028000DF93EC0181E0888F9B8D8C8D98131AC0D1
:10029000E889F989808185FF15C09FB7F894EE89B8
:1002A000FF896083E889F989808183708064808315
:1002B0009FBF81E090E0DF91CF911F910F91FF9060
:1002C000EF900895F62E0B8D10E00F5F1F4F0F7308
:1002D0001127E02E8C8D8E110CC00FB607FCFACFC3
:1002E000E889F989808185FFF5CFCE010E94190147
:1002F000F1CFEB8DEC0FFD2FF11DE35AFF4FF08294
:100300009FB7F8940B8FEA89FB8980818062CFCFF9
:10031000682F81E992E00C943B01CF93DF93EC01CD
:10032000888D8823B9F0AA89BB89E889F9898C91DD
:1003300085FD03C0808186FD0DC00FB607FCF7CF99
:100340008C9185FFF2CF808185FFEDCFCE010E9499
:100350001901E9CFDF91CF91089590E0FC01EC55B0
:10036000FF4F2491FC01E057FF4F3491FC01E4580A
:10037000FF4FE491EE23C9F0222339F0233001F13D
:10038000A8F4213019F1223029F1F0E0EE0FFF1F1F
:10039000EE58FF4FA591B4918FB7F894EC9161118D
:1003A00026C030953E233C938FBF08952730A9F097
:1003B0002830C9F0243049F7809180008F7D03C038
:1003C000809180008F7780938000DFCF84B58F7716
:1003D00084BDDBCF84B58F7DFBCF8091B0008F775C
:1003E0008093B000D2CF8091B0008F7DF9CF3E2BAB
:1003F000DACFCF93DF9390E0FC01E057FF4F2491D9
:1004000084589F4FFC0184918823D1F090E0880F9D
:10041000991FFC01E859FF4FA591B491FC01EE58DA
:10042000FF4FC591D49161110EC09FB7F8948C9184
:10043000E22FE0958E238C932881E223E8839FBFEF
:10044000DF91CF9108958FB7F894EC91E22BEC9364
:100450008FBFF6CF3FB7F894809137029091380262
:10046000A0913902B0913A0226B5A89B05C02F3F52
:1004700019F00196A11DB11D3FBFBA2FA92F982FCA
:100480008827BC01CD01620F711D811D911D42E0C5
:10049000660F771F881F991F4A95D1F708958F928D
:1004A0009F92AF92BF92CF92DF92EF92FF926B0139
:1004B0007C010E942A024B015C01C114D104E104B9
:1004C000F104B9F00E942A02681979098A099B0986
:1004D000683E73408105910580F321E0C21AD1087E
:1004E000E108F10888EE880E83E0981EA11CB11C7B
:1004F000E4CFFF90EF90DF90CF90BF90AF909F90B0
:100500008F900895EF92FF921F93CF93DF93D82F90
:100510001091080160E0812F0E94AD0161E08DE043
:100520000E94AD01C8E08FE0E82EF12C60E08DE084
:100530000E94AD01C7010197F1F761E0D7FF60E0CC
:100540008BE00E94AD01DD0F61E08DE00E94AD0106
:10055000C7010197F1F7C15049F761E0812FDF91A1
:10056000CF911F91FF90EF900C94AD0108952091D1
:100570000F02260F3327331F21323105ECF420916F
:100580006702FC0190E080E0243069F082E0089589
:10059000A0910F022191AC0141515E4FA40FB52FE4
:1005A000B11D2C930196861798F380910F02680F66
:1005B00060930F0280E0089581E008951092670231
:1005C00081E0809366021092410261E082E10E9424
:1005D000AD0161E083E10E94AD01E9EBF0E08081D3
:1005E0008E7F808380818D7F808388E48093B800B4
:1005F00085E48093BC000895CF93DF9391E09093BE
:10060000EE018823B9F0C091B800D091BA00809172
:10061000BC008A7B8093BC0060E082E10E94AD0157
:1006200060E083E10E94AD010E94DE02D093BA0037
:10063000C093B800DF91CF910895CF92DF92EF92EF
:10064000FF920F931F93CF93DF93D091900281E09D
:10065000D13208F09CC0C0918F020E942A026B0127
:100660007C018091670281116CC082E080936702F7
:1006700081E0809366028FEF80936502109264029E
:10068000D0936302AFE6B2E0E3E4F2E080E0D81397
:100690008DC01092420280914202CC0FC82BC093B1
:1006A000420280914102813009F084C010924102DF
:1006B0000E942A026B017C01809142028093BB0060
:1006C0008091690290916A02A0916B02B0916C02D4
:1006D000892B8A2B8B2BA1F00E942A0200916902A0
:1006E00010916A0220916B0230916C026C197D09A5
:1006F0008E099F09061717072807390708F442C013
:100700008091BC0083FDD8CF85EC8093BC000E9413
:100710002A026B017C0180916702823009F44CC08F
:10072000809165028F3F09F469C080916502803233
:1007300009F466C080916502803309F463C084E0E7
:1007400026C08091690290916A02A0916B02B091DB
:100750006C02892B8A2B8B2B09F483CF0E942A02EF
:100760000091690210916A0220916B0230916C0233
:100770006C197D098E099F09061717072807390785
:1007800008F06FCF809168020E94FC0285E0109211
:100790006E021092900210926D02DF91CF911F9124
:1007A0000F91FF90EF90DF90CF9008959D919193DE
:1007B0008F5F6DCF85EEA9CF8091690290916A021B
:1007C000A0916B02B0916C02892B8A2B8B2B09F4C0
:1007D000A2CF0E942A020091690210916A02209120
:1007E0006B0230916C026C197D098E099F09061706
:1007F00017072807390708F08ECFC4CF80E0C7CF8E
:1008000082E0C5CF83E0C3CF0895E091400280919C
:100810003F02E81730F4F0E0E253FE4F808190E0B1
:1008200008958FEF9FEF08959091400280913F02CD
:100830002FEF3FEF981748F4E92FF0E0E253FE4F17
:10084000208130E09F5F90934002C901089580911C
:100850003F0290914002891B990B0895CF92DF923D
:10086000EF92FF920F931F93CF93DF937C01CB0105
:100870008A0120916D02222389F0EB016B01C40EE5
:10088000D51ECC15DD0569F06991D701ED91FC917C
:100890000190F081E02DC7010995F3CF642F0E94EC
:1008A000B702C801DF91CF911F910F91FF90EF9098
:1008B000DF90CF900895CF93DF931F92CDB7DEB72F
:1008C000698320916D022223F9F020919002203259
:1008D00058F021E030E0FC013383228390E080E097
:1008E0000F90DF91CF91089580916E02E82FF0E094
:1008F000E159FD4F998190838F5F80936E028093C1
:10090000900281E090E0ECCF61E0CE0101960E9480
:10091000B702F7CF682F8EE293E00C945B04FF924E
:100920000F931F93CF93DF938C01FC01F480809190
:100930003A03813041F08230A9F0DF91CF911F91CD
:100940000F91FF900895D0E0C0E0CF15B0F7BE0141
:10095000C8010E948A00082E000C990B0E94880191
:100960002196F3CF8091090191E090936D028093DD
:100970008F0210926E0210929002D0E0C0E0CF156C
:1009800058F4BE01C8010E948A00082E000C990B81
:100990000E948A042196F3CFDF91CF911F910F918E
:1009A000FF900C941D0380913A03823041F0833014
:1009B000C1F08130A9F481E992E00C943B0180916F
:1009C000090191E090936D0280938F0210926E0264
:1009D000109290028EE293E00E945B040E941D033D
:1009E0000895862F0E948202FBCF0F931F93CF930F
:1009F000DF93082F162F80913A03823011F1833054
:100A000009F446C08130C1F48EEF90E00E94880165
:100A1000C3ECD0E0CE010197F1F7602F81E992E0BD
:100A20000E943B01CE010197F1F7612F81E992E02D
:100A30000E943B012197F1F7DF91CF911F910F9118
:100A400008958091090191E090936D0280938F0247
:100A500010926E02109290028EEF90E00E948A0433
:100A6000CBE8D1E0CE010197F1F7602F8EE293E061
:100A70000E945B04CE010197F1F7612F8EE293E0B3
:100A80000E945B04CE010197F1F70E941D03D2CFB3
:100A90008EEF0E948202CFE0D0E0CE010197F1F705
:100AA000802F0E948202CE010197F1F7812F0E94D0
:100AB0008202C0CFE62FF0E0ED5EFE4F6081680F4E
:100AC00085E40C94F5041F93CF93DF93182F809146
:100AD0003A038230C1F08330A9F1813081F48EEF86
:100AE00090E00E948801C3ECD0E0CE010197F1F7BD
:100AF000612F81E992E00E943B012197F1F7DF919C
:100B0000CF911F9108958091090191E090936D021A
:100B100080938F0210926E02109290028EEF90E0FE
:100B20000E948A04CBE8D1E0CE010197F1F7612F52
:100B30008EE293E00E945B04CE010197F1F70E94E0
:100B40001D03DBCF8EEF0E948202CFE0D0E0CE010A
:100B50000197F1F7812F0E948202CFCF81E50E9499
:100B600063058BE193E00197F1F7089590E080E051
:100B700008950F931F93CF938C01FC0101900020E7
:100B8000E9F79F0121503109281B390B2832310523
:100B900010F028E230E0C22F20913A03223079F0A1
:100BA000233041F1213071F5C15060F1F80181919C
:100BB0008F01082E000C990B0E948801F5CF20911F
:100BC000090131E030936D0220938F0210926E0282
:100BD00010929002C15048F0F80181918F01082EC7
:100BE000000C990B0E948A04F5CFCF911F910F91B1
:100BF0000C941D03C15030F0F80181918F010E94C7
:100C00008202F8CFCF911F910F9108950F931F93F8
:100C1000CF93DF93D82FC0E00BE113E080910C015C
:100C20008C1768F06D2F8C2F0E945A058BEC91E089
:100C30000E94B905C8010197F1F7CF5FEFCFDF91AF
:100C4000CF911F910F910895FC01808191810097B0
:100C500011F00C94120D0895CF92DF92EF92FF9253
:100C60000F931F93CF93DF9300D0CDB7DEB78C01E6
:100C7000FC01118210821382128215821482698310
:100C80001A82CE0101966C01FC0101900020E9F767
:100C900031977F01E81AF90AB7016F5F7F4F90E043
:100CA00080E00E949B0DF801009799F0918380836A
:100CB000F382E28224813581232B11F4FC0110821E
:100CC000F801F582E482B601808191810E94610E73
:100CD0000DC080819181009711F00E94120DF801E2
:100CE0001182108215821482138212820F900F904B
:100CF000DF91CF911F910F91FF90EF90DF90CF90F8
:100D0000089585ED8093BC008091690290916A02FC
:100D1000A0916B02B0916C020796A11DB11D23E05A
:100D2000B695A795979587952A95D1F72091BC0000
:100D300024FD03C01092670208954091690250910A
:100D40006A0260916B0270916C02452B462B472B17
:100D500069F30097A105B10541F025E32A95F1F764
:100D600000000197A109B109E1CF809168020C94BC
:100D7000FC021F920F920FB60F9211242F933F93F4
:100D80004F935F936F937F938F939F93AF93BF9393
:100D9000EF93FF9381E992E00E941901FF91EF9197
:100DA000BF91AF919F918F917F916F915F914F9183
:100DB0003F912F910F900FBE0F901F9018951F928B
:100DC0000F920FB60F9211242F938F939F93EF934F
:100DD000FF93E091A102F091A2028081E091A7022D
:100DE000F091A80282FD1BC090818091AA028F5FC2
:100DF0008F732091AB02821741F0E091AA02F0E0DC
:100E0000EF56FD4F958F8093AA02FF91EF919F912E
:100E10008F912F910F900FBE0F901F90189580818A
:100E2000F4CF1F920F920FB60F9211242F933F937E
:100E30008F939F93AF93BF9380913302909134022D
:100E4000A0913502B09136023091320223E0230F97
:100E50002D3758F50196A11DB11D209332028093C4
:100E6000330290933402A0933502B09336028091FE
:100E7000370290913802A0913902B0913A0201965E
:100E8000A11DB11D8093370290933802A0933902BF
:100E9000B0933A02BF91AF919F918F913F912F9163
:100EA0000F900FBE0F901F90189526E8230F029603
:100EB000A11DB11DD2CF1F920F920FB60F92112418
:100EC0002F933F934F935F936F937F938F939F9352
:100ED000AF93BF93EF93FF938091B900887F8036E3
:100EE00009F44AC0F0F5883209F4A7C018F580313A
:100EF00009F49BC0B8F4882309F4F9C0883009F4D8
:100F000094C0FF91EF91BF91AF919F918F917F918D
:100F10006F915F914F913F912F910F900FBE0F9066
:100F20001F901895883109F488C0803251F780935A
:100F3000650214C0803409F49DC040F48033B9F3D5
:100F40008833F9F68093650285ECB0C0803509F4EA
:100F500085C0883509F496C0883499F60E948106C8
:100F6000D0CF883909F48CC038F5883729F050F48F
:100F7000883611F0803729F683E08093670210925B
:100F8000310257C0883809F47BC0803919F08038A5
:100F900009F0B7CF80913102803208F071C0E09142
:100FA000310281E08E0F809331028091BB00F0E02E
:100FB000EF5EFD4F80833DC0803B39F0E0F4803A26
:100FC00009F479C0883A09F09CCF84E080936702E5
:100FD0001092100210920F02E0913D02F0913E0239
:100FE000099580910F0281110FC081E080930F025B
:100FF0001092EF0109C0803C09F4A6CF883C09F4A7
:10100000A3CF883B09F07DCFE091100281E08E0FE5
:1010100080931002F0E0E151FE4F80818093BB008D
:101020009091100280910F0229C08091420280931A
:10103000BB0085EC8093BC0064CF909164028091EA
:101040006302981758F5E091640281E08E0F809357
:101050006402F0E0ED5BFD4F8081E9CFE091640236
:1010600081E08E0F809364028091BB00F0E0ED5B25
:10107000FD4F808390916402809163029817C8F2BB
:1010800085E8D8CFE091640281E08E0F80936402FE
:101090008091BB00F0E0ED5BFD4F808380916602A4
:1010A00081115CCF81E08093410284EA8093BC008F
:1010B0001092670226CF85EC8093BC0010926702E5
:1010C00080913102803230F4E0913102F0E0EF5E45
:1010D000FD4F10826091310270E0E0913B02F0918F
:1010E0003C0281E192E00995109231020ACF109200
:1010F000650234CFEF92FF920F931F93CF93DF934C
:10110000EC017B01198218821B821A821D821C82CB
:10111000FB0101900020E9F731978F01061B170BA7
:10112000B8016F5F7F4F90E080E00E949B0D0097B9
:10113000B9F0998388831B830A832C813D81232BFB
:1011400011F4FC0110821D830C83B7018881998101
:10115000DF91CF911F910F91FF90EF900C94610E52
:1011600088819981009711F00E94120D19821882CE
:101170001D821C821B821A82DF91CF911F910F91D9
:10118000FF90EF900895E1E9F2E01382128288EE79
:1011900093E0A0E0B0E084839583A683B7832BE13E
:1011A00031E03183208325EC30E03587248724EC3F
:1011B00030E03787268720EC30E0318B208B21EC24
:1011C00030E0338B228B22EC30E0358B248B26EC05
:1011D00030E0378B268B118E128E138E148EEEE23A
:1011E000F3E01382128284839583A683B7838DE212
:1011F00091E091838083E7E4F3E0138212828FE32E
:1012000091E09183808384E180930C0182E080935C
:101210003A0388E28093090167E471E081E493E096
:101220000E947A0866E571E08BE393E00C947A08FB
:10123000CF93DF9300D000D000D0CDB7DEB7789445
:1012400084B5826084BD84B5816084BD85B58260CB
:1012500085BD85B5816085BD80916E00816080937C
:101260006E001092810080918100826080938100E5
:1012700080918100816080938100809180008160F5
:10128000809380008091B10084608093B100809150
:10129000B00081608093B00080917A008460809378
:1012A0007A0080917A00826080937A0080917A003F
:1012B000816080937A0080917A00806880937A00C0
:1012C0001092C10064EF71E080E090E00E944F0254
:1012D00010913A03123009F417C2133009F42BC2EB
:1012E000113009F069C0C0900A01D0900B01F12CB7
:1012F000E12C60E079E08DE390E0A70196010E9487
:101300004E0C2150310941095109569547953795A1
:101310002795E091A102F091A20282E08083C1149E
:1013200081EED806E104F10421F02115E0E13E0749
:10133000A8F0E091A102F091A202108260E874E8A6
:101340008EE190E0A70196010E944E0C21503109D8
:10135000410951095695479537952795E0919D028A
:10136000F0919E023083E0919F02F091A0022083D1
:101370001092A902E091A502F091A60286E0808376
:10138000E091A302F091A402808180618083E091CA
:10139000A302F091A402808188608083E091A3027F
:1013A000F091A402808180688083E091A302F09193
:1013B000A40280818F7D808381E40E94630568E2BE
:1013C00082E50E94F5040E94AE058CE40E9463054C
:1013D00088E40E94630586E40E94630568E083E573
:1013E0000E94F504123009F4BDC1133009F4EEC1B6
:1013F000113019F58EEF90E00E94880103EC10E0A7
:10140000C8010197F1F784E590E00E948801C801C6
:101410000197F1F760E081E992E00E943B01C80189
:101420000197F1F748E050E060E071E081E992E077
:101430000E949B00C8010197F1F72BE1E22E23E007
:10144000F22E30E0C32E30E0D32E86E40E946305F6
:101450000E94AE0561E084E00E945A0588E691E0B2
:101460000E94B90560ED77E080E090E00E944F02B5
:1014700014E061E0812F0E945A058BEC91E00E94FC
:10148000B905C7010197F1F71F5F113191F76AEFB5
:1014900070E080E090E00E944F0280E70E946305C8
:1014A00060ED77E080E090E00E944F020E94AE0580
:1014B0006AEF70E080E090E00E944F0282E70E94B5
:1014C000630560ED77E080E090E00E944F020E94AB
:1014D000AE056AEF70E080E090E00E944F0286E483
:1014E0000E94630585E791E00E94B90561E080E014
:1014F0000E945A0587E891E00E94B90560ED77E007
:1015000080E090E00E944F0262E080E00E945A0575
:101510008AE991E00E94B90560ED77E080E090E013
:101520000E944F0263E080E00E945A058BE40E9413
:10153000630510E000E0B80181E493E00E948A00B6
:10154000682FCE0101960E942C06CE0101960E94C2
:101550008F04CE0101960E94240663E0802F0E9432
:101560005A058AE40E94630564E670E080E090E03A
:101570000E944F020F5F1F4F03311105E1F668EE25
:1015800073E080E090E00E944F0213E1612F70E071
:101590008BE393E00E948A00682FCE0101960E949F
:1015A0002C06CE0101960E948F04CE0101960E9466
:1015B000240663E0812F0E945A0589E40E94630596
:1015C00064E670E080E090E00E944F021150F0F677
:1015D0008CE40E94630560ED77E080E090E00E947B
:1015E0004F0269E182E50E94F50480E00E94060650
:1015F00081E00E94060682E00E94060683E00E94C7
:10160000060661E082E00E945A058EEA91E00E949F
:10161000B90510E08FEF810F69E1823308F4612F83
:1016200082E50E94F50464E670E080E090E00E94AC
:101630004F021F5F193271F760ED77E080E090E0B4
:101640000E944F0261E084E10E945A0564E670E066
:1016500080E090E00E944F0285E50E94630564E609
:1016600070E080E090E00E944F0285E50E946305F3
:101670006AEF70E080E090E00E944F0215E164E6BE
:1016800070E080E090E00E944F0286E50E946305D2
:1016900061E0812F0E945A058BEC91E00E94B90510
:1016A000C7010197F1F7115051F760ED77E080E045
:1016B00090E00E944F020E94AE0561E083E00E942C
:1016C0005A058FEB91E00E94B90560E087E493E052
:1016D0000E94D30460ED77E080E090E00E944F022A
:1016E0000E94AE056CED75E080E090E00E944F0234
:1016F000C114D10409F4A9CE0E940501882309F47C
:10170000A4CE0E940000A1CE1092400210923F028F
:1017100010926E02109290020E94DE0288E890E021
:1017200090933E0280933D0289E890E090933C02C2
:1017300080933B0241CE0091080161E0802F0E941E
:10174000F90161E08DE00E94F90161E08BE00E9407
:10175000F90160E08CE00E94F90161E0802F0E94B5
:10176000AD012ACE8091090191E090936D028093A2
:101770008F0210926E02109290020BE811E0C801E5
:101780000197F1F78EEF90E00E948A04C80101975B
:10179000F1F784E590E00E948A04C8010197F1F70F
:1017A00060E08EE293E00E945B04C8010197F1F7CC
:1017B00048E050E060E071E08EE293E00E942E0489
:1017C000C8010197F1F70E941D0334CE8EEF0E94ED
:1017D00082020FE010E0C8010197F1F784E50E9452
:1017E0008202C8010197F1F780E00E948202C801DD
:1017F0000197F1F700E011E088E0E82E81E0F82E93
:101800009FE0C92ED12CF80181918F010E948202A4
:10181000C6010197F1F7E016F106A9F70ECE8BE3AA
:1018200093E00E94240681E493E00C9424062F9216
:101830003F924F925F926F927F928F929F92AF9260
:10184000BF92CF92DF92EF92FF920F931F93CF93AD
:10185000DF93CDB7DEB7CA1BDB0B0FB6F894DEBF44
:101860000FBECDBF09942A88398848885F846E846A
:101870007D848C849B84AA84B984C884DF80EE80B4
:10188000FD800C811B81AA81B981CE0FD11D0FB6BD
:10189000F894DEBF0FBECDBFED010895A1E21A2E70
:1018A000AA1BBB1BFD010DC0AA1FBB1FEE1FFF1F04
:1018B000A217B307E407F50720F0A21BB30BE40B54
:1018C000F50B661F771F881F991F1A9469F760959B
:1018D0007095809590959B01AC01BD01CF01089555
:1018E000EE0FFF1F0590F491E02D09940F931F93C5
:1018F000CF93DF938230910510F482E090E0E09185
:101900004D03F0914E0330E020E0B0E0A0E03097CE
:1019100099F42115310509F44AC0281B390B2430EC
:101920003105D8F58A819B816115710589F1FB012B
:1019300093838283FE0111C0408151810281138112
:1019400048175907E0F04817590799F4109761F0C4
:1019500012960C93129713961C933296CF01DF9137
:10196000CF911F910F91089500934D0310934E0353
:10197000F4CF2115310551F04217530738F0A90172
:10198000DB019A01BD01DF01F801C1CFEF01F9CF01
:1019900090934E0380934D03CDCFFE01E20FF31FD2
:1019A000819391932250310939832883D7CF209195
:1019B0004B0330914C03232B41F420910F013091C4
:1019C000100130934C0320934B0320910D01309173
:1019D0000E012115310541F42DB73EB7409111019B
:1019E00050911201241B350BE0914B03F0914C03F5
:1019F000E217F307A0F42E1B3F0B2817390778F0E6
:101A0000AC014E5F5F4F2417350748F04E0F5F1F44
:101A100050934C0340934B03819391939FCFF0E0FD
:101A2000E0E09CCFCF93DF930097E9F0FC01329781
:101A300013821282A0914D03B0914E03ED0130E06C
:101A400020E01097A1F420813181820F931F209113
:101A50004B0330914C032817390709F061C0F0930C
:101A60004C03E0934B03DF91CF910895EA01CE1729
:101A7000DF07E8F54A815B819E0141155105B1F709
:101A8000E901FB83EA8349915991C40FD51FEC17F3
:101A9000FD0761F4808191810296840F951FE90111
:101AA00099838883828193819B838A83F0E0E0E03D
:101AB00012968D919C9113970097B9F52D913C91B9
:101AC0001197CD010296820F931F20914B03309105
:101AD0004C032817390739F6309751F510924E0309
:101AE00010924D03B0934C03A0934B03BCCFD38310
:101AF000C28340815181840F951FC817D90761F4B3
:101B00004E5F5F4F88819981480F591F51834083F1
:101B10008A819B81938382832115310509F0B0CF9F
:101B2000F0934E03E0934D039ECFFD01DC01C0CF47
:101B300013821282D7CFB0E0A0E0E1EAFDE00C947E
:101B4000190C8C01009751F4CB010E94760C8C018A
:101B5000C801CDB7DEB7E0E10C94350CFC01E60F0F
:101B6000F71F9C0122503109E217F30708F49DC0CA
:101B7000D901CD91DC911197C617D70798F0C530E0
:101B8000D10530F3CE0104978617970708F3C61BDB
:101B9000D70B2297C193D1936D937C93CF010E9471
:101BA000120DD6CF5B01AC1ABD0A4C018C0E9D1EE6
:101BB000A0914D03B0914E03512C412CF12CE12CFE
:101BC000109731F580914B0390914C03881599053E
:101BD00009F05CC04616570608F058C080910D0108
:101BE00090910E01009741F48DB79EB7409111017D
:101BF00050911201841B950BE817F90708F055C0A6
:101C0000F0934C03E0934B03F90171836083A0CF01
:101C10008D919C91119712966C90129713967C90CF
:101C20001397A815B90559F56C0142E0C40ED11CF3
:101C3000CA14DB0420F1AC014A195B09DA011296DF
:101C4000159780F06282738251834083D9016D932E
:101C50007C93E114F10471F0D7011396FC93EE9399
:101C6000129776CF22968C0F9D1FF9019183808366
:101C7000F301EFCFF0934E03E0934D0369CF481685
:101C8000590608F42C017D01D3019ACFCB010E94A3
:101C9000760C7C01009749F0AE01B8010E94580E05
:101CA000C8010E94120D870153CF10E000E050CF11
:101CB000FB01DC0102C001900D9241505040D8F769
:101CC0000895FB01DC0101900D920020E1F70895D9
:101CD00010E0CDE5D0E004C0FE010E94700C21961A
:0A1CE000CE35D107C9F7F894FFCF05
:101CEA00000A1F1F1F0E04000A2880251000004F3B
:101CFA0003800000401454000000003B019B00C810
:101D0A00008D01F900D700EB00000000005B042EF3
:101D1A0004B605040427041404050400000000D3D3
:101D2A00049B00B605B6024368616E67696E672058
:101D3A00546F6461790045766F6C76696E672054DA
:101D4A006F6D6F72726F770048656C6C6F2C2057DD
:101D5A006F726C64004C697175696443727973744B
:101D6A00616C204E4B4300427920446F6D696E6965
:101D7A0063204C756369616E6F00476974487562C8
:101D8A002E636F6D2F446F6D694C756369004E6FDA
:101D9A0077204C65742773205363726F6C6C005400
:0E1DAA0068616E6B7320342054686520000061
:00000001FF
