:100000000C945E000C9486000C9486000C94860080
:100010000C9486000C9486000C9486000C94860048
:100020000C9486000C9486000C9486000C94860038
:100030000C9486000C9486000C9486000C94860028
:100040000C9437070C9486000C9405070C94DF067B
:100050000C9486000C9486000C9486000C94860008
:100060000C9481070C9486000000000024002700F7
:100070002A0000000000250028002B0004040404CE
:100080000404040402020202020203030303030342
:10009000010204081020408001020408102001021F
:1000A00004081020000000080002010000030407FB
:1000B0000000000000000000E9085E0C11241FBED3
:1000C000CFEFD8E0DEBFCDBF23E0A4EDB1E001C0AB
:1000D0001D92A635B207E1F711E0A0E0B1E0E8E833
:1000E000FDE102C005900D92A43DB107D9F710E0E3
:1000F000CDE5D0E004C02197FE010E94BF0CCC35B5
:10010000D107C9F70E9447090C94B70E0C94000060
:1001100008950895FC01248135816217730748F41E
:1001200080819181009729F0860F971FFC018081C3
:10013000089580E00895AF92BF92CF92DF92EF9240
:10014000FF920F931F93CF93DF936C017B018B0181
:10015000040F151FEB015E01AE18BF08C017D107D1
:1001600059F06991D601ED91FC910190F081E02D5B
:10017000C6010995892B79F7C501DF91CF911F91B0
:100180000F91FF90EF90DF90CF90BF90AF900895C8
:10019000FC01538D448D252F30E0842F90E0821B8D
:1001A000930B541710F0CF96089501970895FC0112
:1001B000918D828D981761F0A28DAE0FBF2FB11D6A
:1001C0005D968C91928D9F5F9F73928F90E00895C2
:1001D0008FEF9FEF0895FC01918D828D981731F07C
:1001E000828DE80FF11D858D90E008958FEF9FEFD0
:1001F0000895FC01918D228D892F90E0805C9F4FA6
:10020000821B91098F739927089587E992E00E94D4
:10021000F90021E0892B09F420E0822F089580E085
:1002200090E0892B29F00E94050181110C940000B7
:100230000895FC01A48DA80FB92FB11DA35ABF4F7B
:100240002C91848D90E001968F739927848FA689D5
:10025000B7892C93A089B1898C91837080648C9329
:10026000938D848D981306C00288F389E02D8081D8
:100270008F7D80830895EF92FF920F931F93CF930A
:10028000DF93EC0181E0888F9B8D8C8D98131AC0D1
:10029000E889F989808185FF15C09FB7F894EE89B8
:1002A000FF896083E889F989808183708064808315
:1002B0009FBF81E090E0DF91CF911F910F91FF9060
:1002C000EF900895F62E0B8D10E00F5F1F4F0F7308
:1002D0001127E02E8C8D8E110CC00FB607FCFACFC3
:1002E000E889F989808185FFF5CFCE010E94190147
:1002F000F1CFEB8DEC0FFD2FF11DE35AFF4FF08294
:100300009FB7F8940B8FEA89FB8980818062CFCFF9
:10031000682F87E992E00C943B01CF93DF93EC01C7
:10032000888D8823B9F0AA89BB89E889F9898C91DD
:1003300085FD03C0808186FD0DC00FB607FCF7CF99
:100340008C9185FFF2CF808185FFEDCFCE010E9499
:100350001901E9CFDF91CF91089590E0FC01EC55B0
:10036000FF4F2491FC01E057FF4F3491FC01E4580A
:10037000FF4FE491EE23C9F0222339F0233001F13D
:10038000A8F4213019F1223029F1F0E0EE0FFF1F1F
:10039000EE58FF4FA591B4918FB7F894EC9161118D
:1003A00026C030953E233C938FBF08952730A9F097
:1003B0002830C9F0243049F7809180008F7D03C038
:1003C000809180008F7780938000DFCF84B58F7716
:1003D00084BDDBCF84B58F7DFBCF8091B0008F775C
:1003E0008093B000D2CF8091B0008F7DF9CF3E2BAB
:1003F000DACFCF93DF9390E0FC01E057FF4F2491D9
:1004000084589F4FFC0184918823D1F090E0880F9D
:10041000991FFC01E859FF4FA591B491FC01EE58DA
:10042000FF4FC591D49161110EC09FB7F8948C9184
:10043000E22FE0958E238C932881E223E8839FBFEF
:10044000DF91CF9108958FB7F894EC91E22BEC9364
:100450008FBFF6CF3FB7F89480913D0290913E0256
:10046000A0913F02B091400226B5A89B05C02F3F46
:1004700019F00196A11DB11D3FBFBA2FA92F982FCA
:100480008827BC01CD01620F711D811D911D42E0C5
:10049000660F771F881F991F4A95D1F708958F928D
:1004A0009F92AF92BF92CF92DF92EF92FF926B0139
:1004B0007C010E942A024B015C01C114D104E104B9
:1004C000F104B9F00E942A02681979098A099B0986
:1004D000683E73408105910580F321E0C21AD1087E
:1004E000E108F10888EE880E83E0981EA11CB11C7B
:1004F000E4CFFF90EF90DF90CF90BF90AF909F90B0
:100500008F900895EF92FF920F931F93CF93DF93F5
:10051000182F0091080160E0802F0E94AD0161E07A
:100520008DE00E94AD01C8E0D0E08FE0E82EF12C14
:1005300060E08DE00E94AD01C7010197F1F761E035
:1005400017FF60E08BE00E94AD01110F61E08DE0CC
:100550000E94AD01C7010197F1F7219749F761E0CA
:10056000802FDF91CF911F910F91FF90EF900C940E
:10057000AD01089520911502260F3327331F213234
:100580003105ECF420916D02FC0190E080E0243014
:1005900069F082E00895A09115022191AC014B50C1
:1005A0005E4FA40FB52FB11D2C930196861798F3BB
:1005B00080911502680F6093150280E0089581E034
:1005C000089510926D0281E080936C0210924702B0
:1005D00061E082E10E94AD0161E083E10E94AD0132
:1005E000E9EBF0E080818E7F808380818D7F808346
:1005F00088E48093B80085E48093BC000895CF938D
:10060000DF9391E09093F4018823B9F0C091B80092
:10061000D091BA008091BC008A7B8093BC0060E0DE
:1006200082E10E94AD0160E083E10E94AD010E9481
:10063000E102D093BA00C093B800DF91CF91089542
:10064000CF92DF92EF92FF920F931F93CF93DF939E
:10065000D091960281E0D13208F09CC0C091950201
:100660000E942A026B017C0180916D0281116CC095
:1006700082E080936D0281E080936C028FEF809323
:100680006B0210926A02D0936902A5E7B2E0E9E436
:10069000F2E080E0D8138DC01092480280914802A9
:1006A000CC0FC82BC093480280914702813009F0DB
:1006B00084C0109247020E942A026B017C01809143
:1006C00048028093BB0080916F0290917002A091CC
:1006D0007102B0917202892B8A2B8B2BA1F00E94A0
:1006E0002A0200916F0210917002209171023091E4
:1006F00072026C197D098E099F09061717072807D2
:10070000390708F442C08091BC0083FDD8CF85EC46
:100710008093BC000E942A026B017C0180916D02D3
:10072000823009F44CC080916B028F3F09F469C09C
:1007300080916B02803209F466C080916B02803335
:1007400009F463C084E026C080916F02909170022A
:10075000A0917102B0917202892B8A2B8B2B09F424
:1007600083CF0E942A0200916F02109170022091A3
:100770007102309172026C197D098E099F0906176A
:1007800017072807390708F06FCF80916E020E9483
:10079000FF0285E01092740210929602109273028A
:1007A000DF91CF911F910F91FF90EF90DF90CF904D
:1007B00008959D9191938F5F6DCF85EEA9CF809124
:1007C0006F0290917002A0917102B0917202892B18
:1007D0008A2B8B2B09F4A2CF0E942A0200916F0270
:1007E0001091700220917102309172026C197D0992
:1007F0008E099F09061717072807390708F08ECFBB
:10080000C4CF80E0C7CF82E0C5CF83E0C3CF0895D7
:10081000E091460280914502E81730F4F0E0EC5296
:10082000FE4F808190E008958FEF9FEF08959091A3
:100830004602809145022FEF3FEF981748F4E92FC9
:10084000F0E0EC52FE4F208130E09F5F9093460233
:10085000C90108958091450290914602891B990B28
:100860000895CF92DF92EF92FF920F931F93CF9351
:10087000DF937C01CB018A0120917302222389F04E
:10088000EB016B01C40ED51ECC15DD0569F0699135
:10089000D701ED91FC910190F081E02DC701099500
:1008A000F3CF642F0E94BA02C801DF91CF911F914C
:1008B0000F91FF90EF90DF90CF900895CF93DF934B
:1008C0001F92CDB7DEB76983209173022223F9F01E
:1008D00020919602203258F021E030E0FC01338371
:1008E000228390E080E00F90DF91CF910895809176
:1008F0007402E82FF0E0EB58FD4F998190838F5FF1
:10090000809374028093960281E090E0ECCF61E0E6
:10091000CE0101960E94BA02F7CF682F84E393E0DC
:100920000C945E04EF92FF920F931F93CF93DF938B
:100930008C01FC01E480F58080914003909141039B
:100940008130910549F00297B9F0DF91CF911F9165
:100950000F91FF90EF900895D0E0C0E0CE15DF0535
:10096000A4F7BE01C8010E948A00082E000C990B52
:100970000E9488012196F2CF80910A0191E0909324
:100980007302809395021092740210929602D0E046
:10099000C0E0CE15DF055CF4BE01C8010E948A00EC
:1009A000082E000C990B0E948D042196F2CFDF9146
:1009B000CF911F910F91FF90EF900C9420038091A5
:1009C0004003909141038230910549F083309105B5
:1009D000C1F00197A9F487E992E00C943B01809162
:1009E0000A0191E090937302809395021092740231
:1009F0001092960284E393E00E945E040E9420031A
:100A00000895862F0E948202FBCF0F931F93CF93EE
:100A1000DF93082F162F809140039091410382307D
:100A2000910519F18330910509F446C00197C1F48D
:100A30008EEF90E00E948801C3ECD0E0CE010197D8
:100A4000F1F7602F87E992E00E943B01CE01019708
:100A5000F1F7612F87E992E00E943B012197F1F7BE
:100A6000DF91CF911F910F91089580910A0191E03C
:100A700090937302809395021092740210929602E2
:100A80008EEF90E00E948D04CBE1D3E0CE01019780
:100A9000F1F7602F84E393E00E945E04CE0101979A
:100AA000F1F7612F84E393E00E945E04CE01019789
:100AB000F1F70E942003D2CF8EEF0E948202CFE096
:100AC000D0E0CE010197F1F7802F0E948202CE0183
:100AD0000197F1F7812F0E948202C0CFFB01EE0F38
:100AE000FF1FEA5EFE4F6081680F85E40C940505E8
:100AF0001F93CF93DF93182F809140039091410370
:100B000082309105C9F083309105A9F1019781F4F4
:100B10008EEF90E00E948801C3ECD0E0CE010197F7
:100B2000F1F7612F87E992E00E943B012197F1F7ED
:100B3000DF91CF911F91089580910A0191E09093E8
:100B400073028093950210927402109296028EEFB7
:100B500090E00E948D04CBE1D3E0CE010197F1F744
:100B6000612F84E393E00E945E04CE010197F1F7C8
:100B70000E942003DBCF8EEF0E948202CFE0D0E004
:100B8000CE010197F1F7812F0E948202CFCF81E53C
:100B90000E9478058BE193E00197F1F7089590E0CA
:100BA00080E008950F931F93CF938C01FC01019077
:100BB0000020E9F79F0121503109281B390B283209
:100BC000310510F028E230E0C22F2091400330912F
:100BD00041032230310589F02330310549F12130BC
:100BE000310571F5C15060F1F80181918F01082E36
:100BF000000C990B0E948801F5CF20910A0131E089
:100C00003093730220939502109274021092960210
:100C1000C15048F0F80181918F01082E000C990B0A
:100C20000E948D04F5CFCF911F910F910C9420035A
:100C3000C15030F0F80181918F010E948202F8CFFB
:100C4000CF911F910F910895EF92FF920F931F93F1
:100C5000CF93DF937C01D0E0C0E00BE113E0809103
:100C60000E0190910F018C179D076CF0B701CE011A
:100C70000E946E0582ED91E00E94D205C8010197A5
:100C8000F1F72196ECCFDF91CF911F910F91FF905B
:100C9000EF900895FC0180819181009711F00C94F0
:100CA000610D0895CF92DF92EF92FF920F931F9301
:100CB000CF93DF9300D0CDB7DEB78C01FC0111825A
:100CC0001082138212821582148269831A82CE01E5
:100CD00001966C01FC0101900020E9F731977F013A
:100CE000E81AF90AB7016F5F7F4F90E080E00E9439
:100CF000EA0DF801009799F091838083F382E282F4
:100D000024813581232B11F4FC011082F801F58236
:100D1000E482B601808191810E94B00E0DC0808175
:100D20009181009711F00E94610DF80111821082EB
:100D300015821482138212820F900F90DF91CF914F
:100D40001F910F91FF90EF90DF90CF90089585ED68
:100D50008093BC0080916F0290917002A09171020B
:100D6000B09172020796A11DB11D23E0B695A7951B
:100D7000979587952A95D1F72091BC0024FD03C053
:100D800010926D02089540916F025091700260912F
:100D9000710270917202452B462B472B69F3009725
:100DA000A105B10541F025E32A95F1F7000001976F
:100DB000A109B109E1CF80916E020C94FF021F924C
:100DC0000F920FB60F9211242F933F934F935F937F
:100DD0006F937F938F939F93AF93BF93EF93FF9303
:100DE00087E992E00E941901FF91EF91BF91AF91C5
:100DF0009F918F917F916F915F914F913F912F9133
:100E00000F900FBE0F901F9018951F920F920FB664
:100E10000F9211242F938F939F93EF93FF93E09161
:100E2000A702F091A8028081E091AD02F091AE029C
:100E300082FD1BC090818091B0028F5F8F732091E3
:100E4000B102821741F0E091B002F0E0E956FD4FA7
:100E5000958F8093B002FF91EF919F918F912F9189
:100E60000F900FBE0F901F9018958081F4CF1F92A6
:100E70000F920FB60F9211242F933F938F939F934E
:100E8000AF93BF938091390290913A02A0913B02B7
:100E9000B0913C023091380223E0230F2D3758F5F2
:100EA0000196A11DB11D20933802809339029093C1
:100EB0003A02A0933B02B0933C0280913D02909194
:100EC0003E02A0913F02B09140020196A11DB11DCA
:100ED00080933D0290933E02A0933F02B093400264
:100EE000BF91AF919F918F913F912F910F900FBE26
:100EF0000F901F90189526E8230F0296A11DB11D93
:100F0000D2CF1F920F920FB60F9211242F933F93BF
:100F10004F935F936F937F938F939F93AF93BF9301
:100F2000EF93FF938091B900887F803609F44AC01F
:100F3000F0F5883209F4A7C018F5803109F49BC098
:100F4000B8F4882309F4F9C0883009F494C0FF91FB
:100F5000EF91BF91AF919F918F917F916F915F9131
:100F60004F913F912F910F900FBE0F901F901895AA
:100F7000883109F488C0803251F780936B0214C025
:100F8000803409F49DC040F48033B9F38833F9F616
:100F900080936B0285ECB0C0803509F485C088353C
:100FA00009F496C0883499F60E94A706D0CF8839F4
:100FB00009F48CC038F5883729F050F4883611F0E0
:100FC000803729F683E080936D021092370257C074
:100FD000883809F47BC0803919F0803809F0B7CF20
:100FE00080913702803208F071C0E091370281E0D1
:100FF0008E0F809337028091BB00F0E0E95EFD4FD9
:1010000080833DC0803B39F0E0F4803A09F479C038
:10101000883A09F09CCF84E080936D02109216020A
:1010200010921502E0914302F091440209958091DB
:10103000150281110FC081E0809315021092F50115
:1010400009C0803C09F4A6CF883C09F4A3CF883BB3
:1010500009F07DCFE091160281E08E0F8093160299
:10106000F0E0EB50FE4F80818093BB009091160220
:101070008091150229C0809148028093BB0085ECC5
:101080008093BC0064CF90916A02809169029817A6
:1010900058F5E0916A0281E08E0F80936A02F0E0D9
:1010A000E75BFD4F8081E9CFE0916A0281E08E0F1E
:1010B00080936A028091BB00F0E0E75BFD4F808384
:1010C00090916A02809169029817C8F285E8D8CF9A
:1010D000E0916A0281E08E0F80936A028091BB00EA
:1010E000F0E0E75BFD4F808380916C0281115CCF63
:1010F00081E08093470284EA8093BC0010926D02E5
:1011000026CF85EC8093BC0010926D02809137024F
:10111000803230F4E0913702F0E0E95EFD4F10825A
:101120006091370270E0E0914102F091420287E164
:1011300092E00995109237020ACF10926B0234CFD9
:10114000EF92FF920F931F93CF93DF93EC017B01FC
:10115000198218821B821A821D821C82FB01019057
:101160000020E9F731978F01061B170BB8016F5F5D
:101170007F4F90E080E00E94EA0D0097B9F09983DC
:1011800088831B830A832C813D81232B11F4FC016E
:1011900010821D830C83B70188819981DF91CF91E3
:1011A0001F910F91FF90EF900C94B00E8881998160
:1011B000009711F00E94610D198218821D821C8215
:1011C0001B821A82DF91CF911F910F91FF90EF90B8
:1011D0000895E7E9F2E01382128288EE93E0A0E03E
:1011E000B0E084839583A683B78322E231E0318324
:1011F000208325EC30E03587248724EC30E03787E6
:10120000268720EC30E0318B208B21EC30E0338BD3
:10121000228B22EC30E0358B248B26EC30E0378BB0
:10122000268B118E128E138E148EE4E3F3E013825C
:10123000128284839583A683B78384E391E09183AC
:101240008083EEE4F3E01382128286E491E09183DE
:10125000808384E190E090930F0180930E0182E0FF
:1012600090E0909341038093400388E290E0909354
:101270000B0180930A016EE471E088E493E00E9420
:10128000A0086DE571E082E493E00C94A008CF9390
:10129000DF9300D000D000D0CDB7DEB7789484B50E
:1012A000826084BD84B5816084BD85B5826085BD62
:1012B00085B5816085BD80916E00816080936E00F0
:1012C00010928100809181008260809381008091E2
:1012D0008100816080938100809180008160809393
:1012E00080008091B10084608093B1008091B00053
:1012F00081608093B00080917A00846080937A004E
:1013000080917A00826080937A0080917A00816077
:1013100080937A0080917A00806880937A0010929E
:10132000C10064EF71E080E090E00E944F02009104
:101330004003109141030230110509F434C2033017
:10134000110509F447C20130110509F065C0C090CC
:101350000C01D0900D010D2C000CEE08FF0860E090
:1013600079E08DE390E0A70196010E949D0C215049
:101370003109410951095695479537952795E091CF
:10138000A702F091A80282E08083211580E138074E
:10139000A8F0E091A702F091A802108260E874E83A
:1013A0008EE190E0A70196010E949D0C2150310929
:1013B000410951095695479537952795E091A30224
:1013C000F091A4023083E091A502F091A60220835F
:1013D0001092AF02E091AB02F091AC0286E0808304
:1013E000E091A902F091AA02808180618083E0915E
:1013F000A902F091AA02808188608083E091A9020D
:10140000F091AA02808180688083E091A902F09126
:10141000AA0280818F7D808381E40E94780568E242
:1014200082E50E9405050E94C7058CE40E947805AC
:1014300088E40E94780586E40E94780568E083E5E8
:101440000E9405050230110509F4DBC103301105C6
:1014500009F40BC20130110519F58EEF90E00E94DE
:10146000880103EC10E0C8010197F1F784E590E0F2
:101470000E948801C8010197F1F760E087E992E0D6
:101480000E943B01C8010197F1F748E050E060E09D
:1014900071E087E992E00E949B00C8010197F1F793
:1014A0002BE1E22E23E0F22E30E0C32E30E0D32EEB
:1014B00086E40E9478050E94C70561E070E084E040
:1014C00090E00E946E058FE691E00E94D20560EDEB
:1014D00077E080E090E00E944F0204E010E061E0DD
:1014E00070E0C8010E946E0582ED91E00E94D20575
:1014F000C7010197F1F70F5F1F4F0131110579F710
:101500006AEF70E080E090E00E944F0280E70E9466
:10151000780560ED77E080E090E00E944F020E9445
:10152000C7056AEF70E080E090E00E944F0282E71A
:101530000E94780560ED77E080E090E00E944F0225
:101540000E94C7056AEF70E080E090E00E944F02C1
:1015500086E40E9478058CE791E00E94D20561E064
:1015600070E090E080E00E946E058EE891E00E94BD
:10157000D20560ED77E080E090E00E944F0262E0EB
:1015800070E090E080E00E946E0581EA91E00E94A8
:10159000D20560ED77E080E090E00E944F0263E0CA
:1015A00070E090E080E00E946E058BE40E94780578
:1015B00010E000E0B80188E493E00E948A00682F00
:1015C000CE0101960E945206CE0101960E9492041D
:1015D000CE0101960E944A0663E070E0C8010E94B5
:1015E0006E058AE40E94780564E670E080E090E091
:1015F0000E944F020F5F1F4F03311105D9F668EEAD
:1016000073E080E090E00E944F0213E1A12EB12C24
:10161000B50182E493E00E948A00682FCE01019612
:101620000E945206CE0101960E949204CE010196BC
:101630000E944A0663E070E0C5010E946E0589E4DD
:101640000E94780564E670E080E090E00E944F021E
:101650001150E0F68CE40E94780560ED77E080E0C0
:1016600090E00E944F0269E182E50E94050590E04A
:1016700080E00E94240681E090E00E94240682E03F
:1016800090E00E94240683E090E00E94240661E03E
:1016900070E082E090E00E946E0585EB91E00E9490
:1016A000D20510E08FEF810F69E1823308F4612FDA
:1016B00082E50E94050564E670E080E090E00E940B
:1016C0004F021F5F193271F760ED77E080E090E024
:1016D0000E944F0261E070E084E190E00E946E059C
:1016E00064E670E080E090E00E944F0285E50E9491
:1016F000780564E670E080E090E00E944F0285E5A6
:101700000E9478056AEF70E080E090E00E944F024E
:1017100005E110E064E670E080E090E00E944F0296
:1017200086E50E94780561E070E0C8010E946E05C0
:1017300082ED91E00E94D205C7010197F1F70150B7
:10174000110941F760ED77E080E090E00E944F02E0
:101750000E94C70561E070E083E090E00E946E05A2
:1017600086EC91E00E94D20560E08EE493E00E9456
:10177000DF0460ED77E080E090E00E944F020E947D
:10178000C7056CED75E080E090E00E944F02C11447
:10179000D10409F48DCE0E940501882309F488CE76
:1017A0000E94000085CE10924602109245021092CF
:1017B0007402109296020E94E10288E890E09093F1
:1017C00044028093430289E890E090934202809320
:1017D000410222CEF090080161E08F2D0E94F901B4
:1017E00061E08DE00E94F90161E08BE00E94F90167
:1017F00060E08CE00E94F90161E08F2D0E94AD0154
:101800000BCE80910A0191E0909373028093950230
:1018100010927402109296020BE113E0C801019736
:10182000F1F78EEF90E00E948D04C8010197F1F767
:1018300084E590E00E948D04C8010197F1F760E013
:1018400084E393E00E945E04C8010197F1F748E049
:1018500050E060E071E084E393E00E943104C8014D
:101860000197F1F70E94200318CE8EEF0E948202AA
:101870000FE010E0C8010197F1F784E50E948202B1
:10188000C8010197F1F780E00E948202C801019728
:10189000F1F700E011E088E0E82E81E0F82E9FE00B
:1018A000C92ED12CF80181918F010E948202C601BC
:1018B0000197F1F7E016F106A9F7F2CD82E493E083
:1018C0000E944A0688E493E00C944A062F923F92C5
:1018D0004F925F926F927F928F929F92AF92BF9240
:1018E000CF92DF92EF92FF920F931F93CF93DF93EC
:1018F000CDB7DEB7CA1BDB0B0FB6F894DEBF0FBE49
:10190000CDBF09942A88398848885F846E847D8495
:101910008C849B84AA84B984C884DF80EE80FD8097
:101920000C811B81AA81B981CE0FD11D0FB6F8940D
:10193000DEBF0FBECDBFED010895A1E21A2EAA1B96
:10194000BB1BFD010DC0AA1FBB1FEE1FFF1FA2176F
:10195000B307E407F50720F0A21BB30BE40BF50B6C
:10196000661F771F881F991F1A9469F760957095F5
:10197000809590959B01AC01BD01CF010895EE0FBC
:10198000FF1F0590F491E02D09940F931F93CF93BF
:10199000DF938230910510F482E090E0E0915403EF
:1019A000F091550330E020E0B0E0A0E0309799F4EA
:1019B0002115310509F44AC0281B390B24303105A3
:1019C000D8F58A819B816115710589F1FB019383AB
:1019D0008283FE0111C04081518102811381481729
:1019E0005907E0F04817590799F4109761F01296DB
:1019F0000C93129713961C933296CF01DF91CF91DF
:101A00001F910F9108950093540310935503F4CF41
:101A10002115310551F04217530738F0A901DB01B8
:101A20009A01BD01DF01F801C1CFEF01F9CF909319
:101A3000550380935403CDCFFE01E20FF31F819332
:101A400091932250310939832883D7CF20915203B3
:101A500030915303232B41F4209112013091130153
:101A600030935303209352032091100130911101C0
:101A70002115310541F42DB73EB740911401509125
:101A80001501241B350BE0915203F0915303E2172B
:101A9000F307A0F42E1B3F0B2817390778F0AC0191
:101AA0004E5F5F4F2417350748F04E0F5F1F50936E
:101AB000530340935203819391939FCFF0E0E0E072
:101AC0009CCFCF93DF930097E9F0FC01329713820C
:101AD0001282A0915403B0915503ED0130E020E053
:101AE0001097A1F420813181820F931F209152031E
:101AF000309153032817390709F061C0F09353035D
:101B0000E0935203DF91CF910895EA01CE17DF07EA
:101B1000E8F54A815B819E0141155105B1F7E90164
:101B2000FB83EA8349915991C40FD51FEC17FD0738
:101B300061F4808191810296840F951FE901998358
:101B40008883828193819B838A83F0E0E0E0129610
:101B50008D919C9113970097B9F52D913C91119718
:101B6000CD010296820F931F2091520330915303AF
:101B70002817390739F6309751F51092550310920E
:101B80005403B0935303A0935203BCCFD383C283B7
:101B900040815181840F951FC817D90761F44E5FAA
:101BA0005F4F88819981480F591F518340838A81F3
:101BB0009B81938382832115310509F0B0CFF09387
:101BC0005503E09354039ECFFD01DC01C0CF138287
:101BD0001282D7CFB0E0A0E0E0EFFDE00C94680CFB
:101BE0008C01009751F4CB010E94C50C8C01C801F7
:101BF000CDB7DEB7E0E10C94840CFC01E60FF71FD3
:101C00009C0122503109E217F30708F49DC0D90165
:101C1000CD91DC911197C617D70798F0C530D10543
:101C200030F3CE0104978617970708F3C61BD70B2E
:101C30002297C193D1936D937C93CF010E94610D44
:101C4000D6CF5B01AC1ABD0A4C018C0E9D1EA09133
:101C50005403B0915503512C412CF12CE12C1097D9
:101C600031F580915203909153038815990509F03D
:101C70005CC04616570608F058C08091100190913C
:101C80001101009741F48DB79EB740911401509116
:101C90001501841B950BE817F90708F055C0F09360
:101CA0005303E0935203F90171836083A0CF8D91B8
:101CB0009C91119712966C90129713967C901397A3
:101CC000A815B90559F56C0142E0C40ED11CCA141F
:101CD000DB0420F1AC014A195B09DA011296159771
:101CE00080F06282738251834083D9016D937C932B
:101CF000E114F10471F0D7011396FC93EE9312975F
:101D000076CF22968C0F9D1FF90191838083F3017A
:101D1000EFCFF0935503E093540369CF481659066B
:101D200008F42C017D01D3019ACFCB010E94C50C90
:101D30007C01009749F0AE01B8010E94A70EC801CE
:101D40000E94610D870153CF10E000E050CFFB01EE
:101D5000DC0102C001900D9241505040D8F7089527
:101D6000FB01DC0101900D920020E1F7089510E0E5
:101D7000CDE5D0E004C0FE010E94BF0C2196CE3517
:081D8000D107C9F7F894FFCF69
:101D8800000A1F1F1F0E04000A00280080251000EB
:101D980000005603800000004000140054000000BA
:101DA80000003B019B00C8008D01F900D700EB0043
:101DB800000000005E043104CF0507042A0417045C
:101DC800080400000000DF049B00CF05B902436847
:101DD800616E67696E6720546F6461790045766F3C
:101DE8006C76696E6720546F6D6F72726F770048FA
:101DF800656C6C6F2C20576F726C64004C69717540
:101E080069644372797374616C204E4B4300427964
:101E180020446F6D696E6963204C756369616E6FEC
:101E2800004769744875622E636F6D2F446F6D6942
:101E38004C756369004E6F77204C65742773205387
:101E480063726F6C6C005468616E6B73203420543D
:041E58006865200099
:00000001FF
